{
  "_format": "hh-sol-artifact-1",
  "contractName": "StakingContractupgrade",
  "sourceName": "contracts/stakingupgradeable.sol",
  "abi": [
    {
      "anonymous": false,
      "inputs": [
        {
          "indexed": true,
          "internalType": "address",
          "name": "owner",
          "type": "address"
        },
        {
          "indexed": true,
          "internalType": "address",
          "name": "spender",
          "type": "address"
        },
        {
          "indexed": false,
          "internalType": "uint256",
          "name": "value",
          "type": "uint256"
        }
      ],
      "name": "Approval",
      "type": "event"
    },
    {
      "anonymous": false,
      "inputs": [
        {
          "indexed": false,
          "internalType": "uint8",
          "name": "version",
          "type": "uint8"
        }
      ],
      "name": "Initialized",
      "type": "event"
    },
    {
      "anonymous": false,
      "inputs": [
        {
          "indexed": true,
          "internalType": "address",
          "name": "previousOwner",
          "type": "address"
        },
        {
          "indexed": true,
          "internalType": "address",
          "name": "newOwner",
          "type": "address"
        }
      ],
      "name": "OwnershipTransferred",
      "type": "event"
    },
    {
      "anonymous": false,
      "inputs": [
        {
          "indexed": true,
          "internalType": "address",
          "name": "from",
          "type": "address"
        },
        {
          "indexed": true,
          "internalType": "address",
          "name": "to",
          "type": "address"
        },
        {
          "indexed": false,
          "internalType": "uint256",
          "name": "value",
          "type": "uint256"
        }
      ],
      "name": "Transfer",
      "type": "event"
    },
    {
      "inputs": [
        {
          "internalType": "address",
          "name": "owner",
          "type": "address"
        },
        {
          "internalType": "address",
          "name": "spender",
          "type": "address"
        }
      ],
      "name": "allowance",
      "outputs": [
        {
          "internalType": "uint256",
          "name": "",
          "type": "uint256"
        }
      ],
      "stateMutability": "view",
      "type": "function"
    },
    {
      "inputs": [
        {
          "internalType": "address",
          "name": "",
          "type": "address"
        }
      ],
      "name": "amountStaked",
      "outputs": [
        {
          "internalType": "uint256",
          "name": "",
          "type": "uint256"
        }
      ],
      "stateMutability": "view",
      "type": "function"
    },
    {
      "inputs": [
        {
          "internalType": "address",
          "name": "spender",
          "type": "address"
        },
        {
          "internalType": "uint256",
          "name": "amount",
          "type": "uint256"
        }
      ],
      "name": "approve",
      "outputs": [
        {
          "internalType": "bool",
          "name": "",
          "type": "bool"
        }
      ],
      "stateMutability": "nonpayable",
      "type": "function"
    },
    {
      "inputs": [
        {
          "internalType": "address",
          "name": "account",
          "type": "address"
        }
      ],
      "name": "balanceOf",
      "outputs": [
        {
          "internalType": "uint256",
          "name": "",
          "type": "uint256"
        }
      ],
      "stateMutability": "view",
      "type": "function"
    },
    {
      "inputs": [
        {
          "internalType": "uint256",
          "name": "numTokens",
          "type": "uint256"
        }
      ],
      "name": "buyTokens",
      "outputs": [],
      "stateMutability": "payable",
      "type": "function"
    },
    {
      "inputs": [
        {
          "internalType": "address",
          "name": "_staker",
          "type": "address"
        }
      ],
      "name": "calculateReward",
      "outputs": [
        {
          "internalType": "uint256",
          "name": "",
          "type": "uint256"
        }
      ],
      "stateMutability": "view",
      "type": "function"
    },
    {
      "inputs": [
        {
          "internalType": "address",
          "name": "_user",
          "type": "address"
        }
      ],
      "name": "checkBalance",
      "outputs": [
        {
          "internalType": "uint256",
          "name": "",
          "type": "uint256"
        }
      ],
      "stateMutability": "view",
      "type": "function"
    },
    {
      "inputs": [],
      "name": "decimals",
      "outputs": [
        {
          "internalType": "uint8",
          "name": "",
          "type": "uint8"
        }
      ],
      "stateMutability": "view",
      "type": "function"
    },
    {
      "inputs": [
        {
          "internalType": "address",
          "name": "spender",
          "type": "address"
        },
        {
          "internalType": "uint256",
          "name": "subtractedValue",
          "type": "uint256"
        }
      ],
      "name": "decreaseAllowance",
      "outputs": [
        {
          "internalType": "bool",
          "name": "",
          "type": "bool"
        }
      ],
      "stateMutability": "nonpayable",
      "type": "function"
    },
    {
      "inputs": [],
      "name": "duration",
      "outputs": [
        {
          "internalType": "uint256",
          "name": "",
          "type": "uint256"
        }
      ],
      "stateMutability": "view",
      "type": "function"
    },
    {
      "inputs": [
        {
          "internalType": "address",
          "name": "spender",
          "type": "address"
        },
        {
          "internalType": "uint256",
          "name": "addedValue",
          "type": "uint256"
        }
      ],
      "name": "increaseAllowance",
      "outputs": [
        {
          "internalType": "bool",
          "name": "",
          "type": "bool"
        }
      ],
      "stateMutability": "nonpayable",
      "type": "function"
    },
    {
      "inputs": [
        {
          "internalType": "string",
          "name": "name_",
          "type": "string"
        },
        {
          "internalType": "string",
          "name": "symbol_",
          "type": "string"
        },
        {
          "internalType": "uint256",
          "name": "duration_",
          "type": "uint256"
        }
      ],
      "name": "initialize",
      "outputs": [],
      "stateMutability": "nonpayable",
      "type": "function"
    },
    {
      "inputs": [],
      "name": "name",
      "outputs": [
        {
          "internalType": "string",
          "name": "",
          "type": "string"
        }
      ],
      "stateMutability": "view",
      "type": "function"
    },
    {
      "inputs": [],
      "name": "owner",
      "outputs": [
        {
          "internalType": "address",
          "name": "",
          "type": "address"
        }
      ],
      "stateMutability": "view",
      "type": "function"
    },
    {
      "inputs": [],
      "name": "price",
      "outputs": [
        {
          "internalType": "uint256",
          "name": "",
          "type": "uint256"
        }
      ],
      "stateMutability": "view",
      "type": "function"
    },
    {
      "inputs": [],
      "name": "renounceOwnership",
      "outputs": [],
      "stateMutability": "nonpayable",
      "type": "function"
    },
    {
      "inputs": [
        {
          "internalType": "uint256",
          "name": "_amount",
          "type": "uint256"
        }
      ],
      "name": "stake",
      "outputs": [],
      "stateMutability": "nonpayable",
      "type": "function"
    },
    {
      "inputs": [],
      "name": "stakeStartTime",
      "outputs": [
        {
          "internalType": "uint256",
          "name": "",
          "type": "uint256"
        }
      ],
      "stateMutability": "view",
      "type": "function"
    },
    {
      "inputs": [
        {
          "internalType": "address",
          "name": "",
          "type": "address"
        }
      ],
      "name": "staked",
      "outputs": [
        {
          "internalType": "bool",
          "name": "",
          "type": "bool"
        }
      ],
      "stateMutability": "view",
      "type": "function"
    },
    {
      "inputs": [],
      "name": "symbol",
      "outputs": [
        {
          "internalType": "string",
          "name": "",
          "type": "string"
        }
      ],
      "stateMutability": "view",
      "type": "function"
    },
    {
      "inputs": [],
      "name": "totalSupply",
      "outputs": [
        {
          "internalType": "uint256",
          "name": "",
          "type": "uint256"
        }
      ],
      "stateMutability": "view",
      "type": "function"
    },
    {
      "inputs": [
        {
          "internalType": "address",
          "name": "to",
          "type": "address"
        },
        {
          "internalType": "uint256",
          "name": "amount",
          "type": "uint256"
        }
      ],
      "name": "transfer",
      "outputs": [
        {
          "internalType": "bool",
          "name": "",
          "type": "bool"
        }
      ],
      "stateMutability": "nonpayable",
      "type": "function"
    },
    {
      "inputs": [
        {
          "internalType": "address",
          "name": "from",
          "type": "address"
        },
        {
          "internalType": "address",
          "name": "to",
          "type": "address"
        },
        {
          "internalType": "uint256",
          "name": "amount",
          "type": "uint256"
        }
      ],
      "name": "transferFrom",
      "outputs": [
        {
          "internalType": "bool",
          "name": "",
          "type": "bool"
        }
      ],
      "stateMutability": "nonpayable",
      "type": "function"
    },
    {
      "inputs": [
        {
          "internalType": "address",
          "name": "newOwner",
          "type": "address"
        }
      ],
      "name": "transferOwnership",
      "outputs": [],
      "stateMutability": "nonpayable",
      "type": "function"
    },
    {
      "inputs": [],
      "name": "unstake",
      "outputs": [
        {
          "internalType": "uint256",
          "name": "",
          "type": "uint256"
        }
      ],
      "stateMutability": "nonpayable",
      "type": "function"
    },
    {
      "inputs": [
        {
          "internalType": "uint256",
          "name": "withdraw",
          "type": "uint256"
        }
      ],
      "name": "unstake",
      "outputs": [
        {
          "internalType": "uint256",
          "name": "",
          "type": "uint256"
        }
      ],
      "stateMutability": "nonpayable",
      "type": "function"
    },
    {
      "inputs": [],
      "name": "withdrawEther",
      "outputs": [],
      "stateMutability": "nonpayable",
      "type": "function"
    }
  ],
  "bytecode": "0x608060405234801561001057600080fd5b50612fc3806100206000396000f3fe60806040526004361061019c5760003560e01c80637362377b116100ec578063a694fc3a1161008a578063d82e396211610064578063d82e3962146105e5578063dd62ed3e14610622578063ef40a6701461065f578063f2fde38b1461069c5761019c565b8063a694fc3a14610556578063a9059cbb1461057f578063b119490e146105bc5761019c565b806395d89b41116100c657806395d89b411461048657806398807d84146104b1578063a035b1fe146104ee578063a457c2d7146105195761019c565b80637362377b146104195780637419f190146104305780638da5cb5b1461045b5761019c565b80632e17de78116101595780633950935111610133578063395093511461034b5780635f5152261461038857806370a08231146103c5578063715018a6146104025761019c565b80632e17de78146102c7578063313ce567146103045780633610724e1461032f5761019c565b806306fdde03146101a1578063095ea7b3146101cc5780630fb5a6b41461020957806318160ddd1461023457806323b872dd1461025f5780632def66201461029c575b600080fd5b3480156101ad57600080fd5b506101b66106c5565b6040516101c39190611be4565b60405180910390f35b3480156101d857600080fd5b506101f360048036038101906101ee9190611cae565b610757565b6040516102009190611d09565b60405180910390f35b34801561021557600080fd5b5061021e61077a565b60405161022b9190611d33565b60405180910390f35b34801561024057600080fd5b50610249610780565b6040516102569190611d33565b60405180910390f35b34801561026b57600080fd5b5061028660048036038101906102819190611d4e565b61078a565b6040516102939190611d09565b60405180910390f35b3480156102a857600080fd5b506102b16107b9565b6040516102be9190611d33565b60405180910390f35b3480156102d357600080fd5b506102ee60048036038101906102e99190611da1565b610952565b6040516102fb9190611d33565b60405180910390f35b34801561031057600080fd5b50610319610982565b6040516103269190611dea565b60405180910390f35b61034960048036038101906103449190611da1565b61098b565b005b34801561035757600080fd5b50610372600480360381019061036d9190611cae565b610af7565b60405161037f9190611d09565b60405180910390f35b34801561039457600080fd5b506103af60048036038101906103aa9190611e05565b610b2e565b6040516103bc9190611d33565b60405180910390f35b3480156103d157600080fd5b506103ec60048036038101906103e79190611e05565b610b40565b6040516103f99190611d33565b60405180910390f35b34801561040e57600080fd5b50610417610b89565b005b34801561042557600080fd5b5061042e610b9d565b005b34801561043c57600080fd5b50610445610ca4565b6040516104529190611d33565b60405180910390f35b34801561046757600080fd5b50610470610caa565b60405161047d9190611e41565b60405180910390f35b34801561049257600080fd5b5061049b610cd4565b6040516104a89190611be4565b60405180910390f35b3480156104bd57600080fd5b506104d860048036038101906104d39190611e05565b610d66565b6040516104e59190611d09565b60405180910390f35b3480156104fa57600080fd5b50610503610d86565b6040516105109190611d33565b60405180910390f35b34801561052557600080fd5b50610540600480360381019061053b9190611cae565b610d8b565b60405161054d9190611d09565b60405180910390f35b34801561056257600080fd5b5061057d60048036038101906105789190611da1565b610e02565b005b34801561058b57600080fd5b506105a660048036038101906105a19190611cae565b610fc3565b6040516105b39190611d09565b60405180910390f35b3480156105c857600080fd5b506105e360048036038101906105de9190611f91565b610fe6565b005b3480156105f157600080fd5b5061060c60048036038101906106079190611e05565b611130565b6040516106199190611d33565b60405180910390f35b34801561062e57600080fd5b506106496004803603810190610644919061201c565b6111c4565b6040516106569190611d33565b60405180910390f35b34801561066b57600080fd5b5061068660048036038101906106819190611e05565b61124b565b6040516106939190611d33565b60405180910390f35b3480156106a857600080fd5b506106c360048036038101906106be9190611e05565b611263565b005b6060603680546106d49061208b565b80601f01602080910402602001604051908101604052809291908181526020018280546107009061208b565b801561074d5780601f106107225761010080835404028352916020019161074d565b820191906000526020600020905b81548152906001019060200180831161073057829003601f168201915b5050505050905090565b6000806107626112e6565b905061076f8185856112ee565b600191505092915050565b609a5481565b6000603554905090565b6000806107956112e6565b90506107a28582856114b7565b6107ad858585611543565b60019150509392505050565b600080609760003373ffffffffffffffffffffffffffffffffffffffff1673ffffffffffffffffffffffffffffffffffffffff168152602001908152602001600020541161083c576040517f08c379a000000000000000000000000000000000000000000000000000000000815260040161083390612108565b60405180910390fd5b600061084733611130565b9050600081609760003373ffffffffffffffffffffffffffffffffffffffff1673ffffffffffffffffffffffffffffffffffffffff168152602001908152602001600020546108969190612157565b90506000609760003373ffffffffffffffffffffffffffffffffffffffff1673ffffffffffffffffffffffffffffffffffffffff168152602001908152602001600020819055506000609860003373ffffffffffffffffffffffffffffffffffffffff1673ffffffffffffffffffffffffffffffffffffffff16815260200190815260200160002060006101000a81548160ff02191690831515021790555061093f30836117bc565b61094a303383611543565b809250505090565b60008061095d6107b9565b90506000838261096d919061218b565b905061097881610e02565b8192505050919050565b60006012905090565b600081116109ce576040517f08c379a00000000000000000000000000000000000000000000000000000000081526004016109c59061220b565b60405180910390fd5b60006001826109dd919061222b565b905080341015610a22576040517f08c379a0000000000000000000000000000000000000000000000000000000008152600401610a19906122b9565b60405180910390fd5b610a2c33836117bc565b80341115610af35760008134610a42919061218b565b905060003373ffffffffffffffffffffffffffffffffffffffff1682604051610a6a9061230a565b60006040518083038185875af1925050503d8060008114610aa7576040519150601f19603f3d011682016040523d82523d6000602084013e610aac565b606091505b5050905080610af0576040517f08c379a0000000000000000000000000000000000000000000000000000000008152600401610ae790612391565b60405180910390fd5b50505b5050565b600080610b026112e6565b9050610b23818585610b1485896111c4565b610b1e9190612157565b6112ee565b600191505092915050565b6000610b3982610b40565b9050919050565b6000603360008373ffffffffffffffffffffffffffffffffffffffff1673ffffffffffffffffffffffffffffffffffffffff168152602001908152602001600020549050919050565b610b91611913565b610b9b6000611991565b565b610ba5611913565b600047905060008111610bed576040517f08c379a0000000000000000000000000000000000000000000000000000000008152600401610be4906123fd565b60405180910390fd5b6000610bf7610caa565b73ffffffffffffffffffffffffffffffffffffffff1682604051610c1a9061230a565b60006040518083038185875af1925050503d8060008114610c57576040519150601f19603f3d011682016040523d82523d6000602084013e610c5c565b606091505b5050905080610ca0576040517f08c379a0000000000000000000000000000000000000000000000000000000008152600401610c979061248f565b60405180910390fd5b5050565b60995481565b6000606560009054906101000a900473ffffffffffffffffffffffffffffffffffffffff16905090565b606060378054610ce39061208b565b80601f0160208091040260200160405190810160405280929190818152602001828054610d0f9061208b565b8015610d5c5780601f10610d3157610100808354040283529160200191610d5c565b820191906000526020600020905b815481529060010190602001808311610d3f57829003601f168201915b5050505050905090565b60986020528060005260406000206000915054906101000a900460ff1681565b600181565b600080610d966112e6565b90506000610da482866111c4565b905083811015610de9576040517f08c379a0000000000000000000000000000000000000000000000000000000008152600401610de090612521565b60405180910390fd5b610df682868684036112ee565b60019250505092915050565b60008111610e45576040517f08c379a0000000000000000000000000000000000000000000000000000000008152600401610e3c9061258d565b60405180910390fd5b80610e4f33610b40565b1015610e90576040517f08c379a0000000000000000000000000000000000000000000000000000000008152600401610e87906125f9565b60405180910390fd5b6000609760003373ffffffffffffffffffffffffffffffffffffffff1673ffffffffffffffffffffffffffffffffffffffff1681526020019081526020016000205414610f12576040517f08c379a0000000000000000000000000000000000000000000000000000000008152600401610f0990612665565b60405180910390fd5b610f1c3082610fc3565b5080609760003373ffffffffffffffffffffffffffffffffffffffff1673ffffffffffffffffffffffffffffffffffffffff168152602001908152602001600020819055506001609860003373ffffffffffffffffffffffffffffffffffffffff1673ffffffffffffffffffffffffffffffffffffffff16815260200190815260200160002060006101000a81548160ff0219169083151502179055504260998190555050565b600080610fce6112e6565b9050610fdb818585611543565b600191505092915050565b60008060019054906101000a900460ff161590508080156110175750600160008054906101000a900460ff1660ff16105b80611044575061102630611a57565b1580156110435750600160008054906101000a900460ff1660ff16145b5b611083576040517f08c379a000000000000000000000000000000000000000000000000000000000815260040161107a906126f7565b60405180910390fd5b60016000806101000a81548160ff021916908360ff16021790555080156110c0576001600060016101000a81548160ff0219169083151502179055505b6110ca8484611a7a565b81609a81905550801561112a5760008060016101000a81548160ff0219169083151502179055507f7f26b83ff96e1f2b6a682f133852f6798a09c465da95921460cefb38474024986001604051611121919061275c565b60405180910390a15b50505050565b600080609760008473ffffffffffffffffffffffffffffffffffffffff1673ffffffffffffffffffffffffffffffffffffffff168152602001908152602001600020549050600060648261118491906127a6565b9050600060995442611196919061218b565b90506000609a54826111a891906127a6565b905080836111b6919061222b565b925082945050505050919050565b6000603460008473ffffffffffffffffffffffffffffffffffffffff1673ffffffffffffffffffffffffffffffffffffffff16815260200190815260200160002060008373ffffffffffffffffffffffffffffffffffffffff1673ffffffffffffffffffffffffffffffffffffffff16815260200190815260200160002054905092915050565b60976020528060005260406000206000915090505481565b61126b611913565b600073ffffffffffffffffffffffffffffffffffffffff168173ffffffffffffffffffffffffffffffffffffffff16036112da576040517f08c379a00000000000000000000000000000000000000000000000000000000081526004016112d190612849565b60405180910390fd5b6112e381611991565b50565b600033905090565b600073ffffffffffffffffffffffffffffffffffffffff168373ffffffffffffffffffffffffffffffffffffffff160361135d576040517f08c379a0000000000000000000000000000000000000000000000000000000008152600401611354906128db565b60405180910390fd5b600073ffffffffffffffffffffffffffffffffffffffff168273ffffffffffffffffffffffffffffffffffffffff16036113cc576040517f08c379a00000000000000000000000000000000000000000000000000000000081526004016113c39061296d565b60405180910390fd5b80603460008573ffffffffffffffffffffffffffffffffffffffff1673ffffffffffffffffffffffffffffffffffffffff16815260200190815260200160002060008473ffffffffffffffffffffffffffffffffffffffff1673ffffffffffffffffffffffffffffffffffffffff168152602001908152602001600020819055508173ffffffffffffffffffffffffffffffffffffffff168373ffffffffffffffffffffffffffffffffffffffff167f8c5be1e5ebec7d5bd14f71427d1e84f3dd0314c0f7b2291e5b200ac8c7c3b925836040516114aa9190611d33565b60405180910390a3505050565b60006114c384846111c4565b90507fffffffffffffffffffffffffffffffffffffffffffffffffffffffffffffffff811461153d578181101561152f576040517f08c379a0000000000000000000000000000000000000000000000000000000008152600401611526906129d9565b60405180910390fd5b61153c84848484036112ee565b5b50505050565b600073ffffffffffffffffffffffffffffffffffffffff168373ffffffffffffffffffffffffffffffffffffffff16036115b2576040517f08c379a00000000000000000000000000000000000000000000000000000000081526004016115a990612a6b565b60405180910390fd5b600073ffffffffffffffffffffffffffffffffffffffff168273ffffffffffffffffffffffffffffffffffffffff1603611621576040517f08c379a000000000000000000000000000000000000000000000000000000000815260040161161890612afd565b60405180910390fd5b61162c838383611ad7565b6000603360008573ffffffffffffffffffffffffffffffffffffffff1673ffffffffffffffffffffffffffffffffffffffff168152602001908152602001600020549050818110156116b3576040517f08c379a00000000000000000000000000000000000000000000000000000000081526004016116aa90612b8f565b60405180910390fd5b818103603360008673ffffffffffffffffffffffffffffffffffffffff1673ffffffffffffffffffffffffffffffffffffffff1681526020019081526020016000208190555081603360008573ffffffffffffffffffffffffffffffffffffffff1673ffffffffffffffffffffffffffffffffffffffff168152602001908152602001600020600082825401925050819055508273ffffffffffffffffffffffffffffffffffffffff168473ffffffffffffffffffffffffffffffffffffffff167fddf252ad1be2c89b69c2b068fc378daa952ba7f163c4a11628f55a4df523b3ef846040516117a39190611d33565b60405180910390a36117b6848484611adc565b50505050565b600073ffffffffffffffffffffffffffffffffffffffff168273ffffffffffffffffffffffffffffffffffffffff160361182b576040517f08c379a000000000000000000000000000000000000000000000000000000000815260040161182290612bfb565b60405180910390fd5b61183760008383611ad7565b80603560008282546118499190612157565b9250508190555080603360008473ffffffffffffffffffffffffffffffffffffffff1673ffffffffffffffffffffffffffffffffffffffff168152602001908152602001600020600082825401925050819055508173ffffffffffffffffffffffffffffffffffffffff16600073ffffffffffffffffffffffffffffffffffffffff167fddf252ad1be2c89b69c2b068fc378daa952ba7f163c4a11628f55a4df523b3ef836040516118fb9190611d33565b60405180910390a361190f60008383611adc565b5050565b61191b6112e6565b73ffffffffffffffffffffffffffffffffffffffff16611939610caa565b73ffffffffffffffffffffffffffffffffffffffff161461198f576040517f08c379a000000000000000000000000000000000000000000000000000000000815260040161198690612c67565b60405180910390fd5b565b6000606560009054906101000a900473ffffffffffffffffffffffffffffffffffffffff16905081606560006101000a81548173ffffffffffffffffffffffffffffffffffffffff021916908373ffffffffffffffffffffffffffffffffffffffff1602179055508173ffffffffffffffffffffffffffffffffffffffff168173ffffffffffffffffffffffffffffffffffffffff167f8be0079c531659141344cd1fd0a4f28419497f9722a3daafe3b4186f6b6457e060405160405180910390a35050565b6000808273ffffffffffffffffffffffffffffffffffffffff163b119050919050565b600060019054906101000a900460ff16611ac9576040517f08c379a0000000000000000000000000000000000000000000000000000000008152600401611ac090612cf9565b60405180910390fd5b611ad38282611ae1565b5050565b505050565b505050565b600060019054906101000a900460ff16611b30576040517f08c379a0000000000000000000000000000000000000000000000000000000008152600401611b2790612cf9565b60405180910390fd5b8160369081611b3f9190612ebb565b508060379081611b4f9190612ebb565b505050565b600081519050919050565b600082825260208201905092915050565b60005b83811015611b8e578082015181840152602081019050611b73565b60008484015250505050565b6000601f19601f8301169050919050565b6000611bb682611b54565b611bc08185611b5f565b9350611bd0818560208601611b70565b611bd981611b9a565b840191505092915050565b60006020820190508181036000830152611bfe8184611bab565b905092915050565b6000604051905090565b600080fd5b600080fd5b600073ffffffffffffffffffffffffffffffffffffffff82169050919050565b6000611c4582611c1a565b9050919050565b611c5581611c3a565b8114611c6057600080fd5b50565b600081359050611c7281611c4c565b92915050565b6000819050919050565b611c8b81611c78565b8114611c9657600080fd5b50565b600081359050611ca881611c82565b92915050565b60008060408385031215611cc557611cc4611c10565b5b6000611cd385828601611c63565b9250506020611ce485828601611c99565b9150509250929050565b60008115159050919050565b611d0381611cee565b82525050565b6000602082019050611d1e6000830184611cfa565b92915050565b611d2d81611c78565b82525050565b6000602082019050611d486000830184611d24565b92915050565b600080600060608486031215611d6757611d66611c10565b5b6000611d7586828701611c63565b9350506020611d8686828701611c63565b9250506040611d9786828701611c99565b9150509250925092565b600060208284031215611db757611db6611c10565b5b6000611dc584828501611c99565b91505092915050565b600060ff82169050919050565b611de481611dce565b82525050565b6000602082019050611dff6000830184611ddb565b92915050565b600060208284031215611e1b57611e1a611c10565b5b6000611e2984828501611c63565b91505092915050565b611e3b81611c3a565b82525050565b6000602082019050611e566000830184611e32565b92915050565b600080fd5b600080fd5b7f4e487b7100000000000000000000000000000000000000000000000000000000600052604160045260246000fd5b611e9e82611b9a565b810181811067ffffffffffffffff82111715611ebd57611ebc611e66565b5b80604052505050565b6000611ed0611c06565b9050611edc8282611e95565b919050565b600067ffffffffffffffff821115611efc57611efb611e66565b5b611f0582611b9a565b9050602081019050919050565b82818337600083830152505050565b6000611f34611f2f84611ee1565b611ec6565b905082815260208101848484011115611f5057611f4f611e61565b5b611f5b848285611f12565b509392505050565b600082601f830112611f7857611f77611e5c565b5b8135611f88848260208601611f21565b91505092915050565b600080600060608486031215611faa57611fa9611c10565b5b600084013567ffffffffffffffff811115611fc857611fc7611c15565b5b611fd486828701611f63565b935050602084013567ffffffffffffffff811115611ff557611ff4611c15565b5b61200186828701611f63565b925050604061201286828701611c99565b9150509250925092565b6000806040838503121561203357612032611c10565b5b600061204185828601611c63565b925050602061205285828601611c63565b9150509250929050565b7f4e487b7100000000000000000000000000000000000000000000000000000000600052602260045260246000fd5b600060028204905060018216806120a357607f821691505b6020821081036120b6576120b561205c565b5b50919050565b7f4e6f20746f6b656e73207374616b656400000000000000000000000000000000600082015250565b60006120f2601083611b5f565b91506120fd826120bc565b602082019050919050565b60006020820190508181036000830152612121816120e5565b9050919050565b7f4e487b7100000000000000000000000000000000000000000000000000000000600052601160045260246000fd5b600061216282611c78565b915061216d83611c78565b925082820190508082111561218557612184612128565b5b92915050565b600061219682611c78565b91506121a183611c78565b92508282039050818111156121b9576121b8612128565b5b92915050565b7f496e76616c696420696e70757400000000000000000000000000000000000000600082015250565b60006121f5600d83611b5f565b9150612200826121bf565b602082019050919050565b60006020820190508181036000830152612224816121e8565b9050919050565b600061223682611c78565b915061224183611c78565b925082820261224f81611c78565b9150828204841483151761226657612265612128565b5b5092915050565b7f496e73756666696369656e74207061796d656e74000000000000000000000000600082015250565b60006122a3601483611b5f565b91506122ae8261226d565b602082019050919050565b600060208201905081810360008301526122d281612296565b9050919050565b600081905092915050565b50565b60006122f46000836122d9565b91506122ff826122e4565b600082019050919050565b6000612315826122e7565b9150819050919050565b7f4661696c656420746f2072657475726e20756e7573656420657468657220746f60008201527f2073656e64657200000000000000000000000000000000000000000000000000602082015250565b600061237b602783611b5f565b91506123868261231f565b604082019050919050565b600060208201905081810360008301526123aa8161236e565b9050919050565b7f4e6f20457468657220617661696c61626c6520746f2077697468647261770000600082015250565b60006123e7601e83611b5f565b91506123f2826123b1565b602082019050919050565b60006020820190508181036000830152612416816123da565b9050919050565b7f4661696c656420746f207472616e7366657220457468657220746f206f776e6560008201527f7200000000000000000000000000000000000000000000000000000000000000602082015250565b6000612479602183611b5f565b91506124848261241d565b604082019050919050565b600060208201905081810360008301526124a88161246c565b9050919050565b7f45524332303a2064656372656173656420616c6c6f77616e63652062656c6f7760008201527f207a65726f000000000000000000000000000000000000000000000000000000602082015250565b600061250b602583611b5f565b9150612516826124af565b604082019050919050565b6000602082019050818103600083015261253a816124fe565b9050919050565b7f43616e6e6f74207374616b65203020746f6b656e730000000000000000000000600082015250565b6000612577601583611b5f565b915061258282612541565b602082019050919050565b600060208201905081810360008301526125a68161256a565b9050919050565b7f4e6f7420656e6f75676820746f6b656e73000000000000000000000000000000600082015250565b60006125e3601183611b5f565b91506125ee826125ad565b602082019050919050565b60006020820190508181036000830152612612816125d6565b9050919050565b7f546f6b656e7320616c7265616479207374616b65640000000000000000000000600082015250565b600061264f601583611b5f565b915061265a82612619565b602082019050919050565b6000602082019050818103600083015261267e81612642565b9050919050565b7f496e697469616c697a61626c653a20636f6e747261637420697320616c72656160008201527f647920696e697469616c697a6564000000000000000000000000000000000000602082015250565b60006126e1602e83611b5f565b91506126ec82612685565b604082019050919050565b60006020820190508181036000830152612710816126d4565b9050919050565b6000819050919050565b6000819050919050565b600061274661274161273c84612717565b612721565b611dce565b9050919050565b6127568161272b565b82525050565b6000602082019050612771600083018461274d565b92915050565b7f4e487b7100000000000000000000000000000000000000000000000000000000600052601260045260246000fd5b60006127b182611c78565b91506127bc83611c78565b9250826127cc576127cb612777565b5b828204905092915050565b7f4f776e61626c653a206e6577206f776e657220697320746865207a65726f206160008201527f6464726573730000000000000000000000000000000000000000000000000000602082015250565b6000612833602683611b5f565b915061283e826127d7565b604082019050919050565b6000602082019050818103600083015261286281612826565b9050919050565b7f45524332303a20617070726f76652066726f6d20746865207a65726f2061646460008201527f7265737300000000000000000000000000000000000000000000000000000000602082015250565b60006128c5602483611b5f565b91506128d082612869565b604082019050919050565b600060208201905081810360008301526128f4816128b8565b9050919050565b7f45524332303a20617070726f766520746f20746865207a65726f20616464726560008201527f7373000000000000000000000000000000000000000000000000000000000000602082015250565b6000612957602283611b5f565b9150612962826128fb565b604082019050919050565b600060208201905081810360008301526129868161294a565b9050919050565b7f45524332303a20696e73756666696369656e7420616c6c6f77616e6365000000600082015250565b60006129c3601d83611b5f565b91506129ce8261298d565b602082019050919050565b600060208201905081810360008301526129f2816129b6565b9050919050565b7f45524332303a207472616e736665722066726f6d20746865207a65726f20616460008201527f6472657373000000000000000000000000000000000000000000000000000000602082015250565b6000612a55602583611b5f565b9150612a60826129f9565b604082019050919050565b60006020820190508181036000830152612a8481612a48565b9050919050565b7f45524332303a207472616e7366657220746f20746865207a65726f206164647260008201527f6573730000000000000000000000000000000000000000000000000000000000602082015250565b6000612ae7602383611b5f565b9150612af282612a8b565b604082019050919050565b60006020820190508181036000830152612b1681612ada565b9050919050565b7f45524332303a207472616e7366657220616d6f756e742065786365656473206260008201527f616c616e63650000000000000000000000000000000000000000000000000000602082015250565b6000612b79602683611b5f565b9150612b8482612b1d565b604082019050919050565b60006020820190508181036000830152612ba881612b6c565b9050919050565b7f45524332303a206d696e7420746f20746865207a65726f206164647265737300600082015250565b6000612be5601f83611b5f565b9150612bf082612baf565b602082019050919050565b60006020820190508181036000830152612c1481612bd8565b9050919050565b7f4f776e61626c653a2063616c6c6572206973206e6f7420746865206f776e6572600082015250565b6000612c51602083611b5f565b9150612c5c82612c1b565b602082019050919050565b60006020820190508181036000830152612c8081612c44565b9050919050565b7f496e697469616c697a61626c653a20636f6e7472616374206973206e6f74206960008201527f6e697469616c697a696e67000000000000000000000000000000000000000000602082015250565b6000612ce3602b83611b5f565b9150612cee82612c87565b604082019050919050565b60006020820190508181036000830152612d1281612cd6565b9050919050565b60008190508160005260206000209050919050565b60006020601f8301049050919050565b600082821b905092915050565b600060088302612d7b7fffffffffffffffffffffffffffffffffffffffffffffffffffffffffffffffff82612d3e565b612d858683612d3e565b95508019841693508086168417925050509392505050565b6000612db8612db3612dae84611c78565b612721565b611c78565b9050919050565b6000819050919050565b612dd283612d9d565b612de6612dde82612dbf565b848454612d4b565b825550505050565b600090565b612dfb612dee565b612e06818484612dc9565b505050565b5b81811015612e2a57612e1f600082612df3565b600181019050612e0c565b5050565b601f821115612e6f57612e4081612d19565b612e4984612d2e565b81016020851015612e58578190505b612e6c612e6485612d2e565b830182612e0b565b50505b505050565b600082821c905092915050565b6000612e9260001984600802612e74565b1980831691505092915050565b6000612eab8383612e81565b9150826002028217905092915050565b612ec482611b54565b67ffffffffffffffff811115612edd57612edc611e66565b5b612ee7825461208b565b612ef2828285612e2e565b600060209050601f831160018114612f255760008415612f13578287015190505b612f1d8582612e9f565b865550612f85565b601f198416612f3386612d19565b60005b82811015612f5b57848901518255600182019150602085019450602081019050612f36565b86831015612f785784890151612f74601f891682612e81565b8355505b6001600288020188555050505b50505050505056fea26469706673582212208bf5c2998a01ec4754858cc32384223b7eccc21e1935aff607818febb922cb3e64736f6c63430008110033",
  "linkReferences": {},
  "deployedLinkReferences": {}
}