{
  "_format": "hh-sol-artifact-1",
  "contractName": "StakingContract",
  "sourceName": "contracts/ERC20staking.sol",
  "abi": [
    {
      "inputs": [
        {
          "internalType": "string",
          "name": "name",
          "type": "string"
        },
        {
          "internalType": "string",
          "name": "symbol",
          "type": "string"
        },
        {
          "internalType": "uint256",
          "name": "_duration",
          "type": "uint256"
        }
      ],
      "stateMutability": "nonpayable",
      "type": "constructor"
    },
    {
      "anonymous": false,
      "inputs": [
        {
          "indexed": true,
          "internalType": "address",
          "name": "owner",
          "type": "address"
        },
        {
          "indexed": true,
          "internalType": "address",
          "name": "spender",
          "type": "address"
        },
        {
          "indexed": false,
          "internalType": "uint256",
          "name": "value",
          "type": "uint256"
        }
      ],
      "name": "Approval",
      "type": "event"
    },
    {
      "anonymous": false,
      "inputs": [
        {
          "indexed": true,
          "internalType": "address",
          "name": "previousOwner",
          "type": "address"
        },
        {
          "indexed": true,
          "internalType": "address",
          "name": "newOwner",
          "type": "address"
        }
      ],
      "name": "OwnershipTransferred",
      "type": "event"
    },
    {
      "anonymous": false,
      "inputs": [
        {
          "indexed": true,
          "internalType": "address",
          "name": "from",
          "type": "address"
        },
        {
          "indexed": true,
          "internalType": "address",
          "name": "to",
          "type": "address"
        },
        {
          "indexed": false,
          "internalType": "uint256",
          "name": "value",
          "type": "uint256"
        }
      ],
      "name": "Transfer",
      "type": "event"
    },
    {
      "inputs": [
        {
          "internalType": "address",
          "name": "owner",
          "type": "address"
        },
        {
          "internalType": "address",
          "name": "spender",
          "type": "address"
        }
      ],
      "name": "allowance",
      "outputs": [
        {
          "internalType": "uint256",
          "name": "",
          "type": "uint256"
        }
      ],
      "stateMutability": "view",
      "type": "function"
    },
    {
      "inputs": [
        {
          "internalType": "address",
          "name": "",
          "type": "address"
        }
      ],
      "name": "amountStaked",
      "outputs": [
        {
          "internalType": "uint256",
          "name": "",
          "type": "uint256"
        }
      ],
      "stateMutability": "view",
      "type": "function"
    },
    {
      "inputs": [
        {
          "internalType": "address",
          "name": "spender",
          "type": "address"
        },
        {
          "internalType": "uint256",
          "name": "amount",
          "type": "uint256"
        }
      ],
      "name": "approve",
      "outputs": [
        {
          "internalType": "bool",
          "name": "",
          "type": "bool"
        }
      ],
      "stateMutability": "nonpayable",
      "type": "function"
    },
    {
      "inputs": [
        {
          "internalType": "address",
          "name": "account",
          "type": "address"
        }
      ],
      "name": "balanceOf",
      "outputs": [
        {
          "internalType": "uint256",
          "name": "",
          "type": "uint256"
        }
      ],
      "stateMutability": "view",
      "type": "function"
    },
    {
      "inputs": [
        {
          "internalType": "uint256",
          "name": "numTokens",
          "type": "uint256"
        }
      ],
      "name": "buyTokens",
      "outputs": [],
      "stateMutability": "payable",
      "type": "function"
    },
    {
      "inputs": [
        {
          "internalType": "address",
          "name": "_staker",
          "type": "address"
        }
      ],
      "name": "calculateReward",
      "outputs": [
        {
          "internalType": "uint256",
          "name": "",
          "type": "uint256"
        }
      ],
      "stateMutability": "view",
      "type": "function"
    },
    {
      "inputs": [
        {
          "internalType": "address",
          "name": "_user",
          "type": "address"
        }
      ],
      "name": "checkBalance",
      "outputs": [
        {
          "internalType": "uint256",
          "name": "",
          "type": "uint256"
        }
      ],
      "stateMutability": "view",
      "type": "function"
    },
    {
      "inputs": [],
      "name": "decimals",
      "outputs": [
        {
          "internalType": "uint8",
          "name": "",
          "type": "uint8"
        }
      ],
      "stateMutability": "view",
      "type": "function"
    },
    {
      "inputs": [
        {
          "internalType": "address",
          "name": "spender",
          "type": "address"
        },
        {
          "internalType": "uint256",
          "name": "subtractedValue",
          "type": "uint256"
        }
      ],
      "name": "decreaseAllowance",
      "outputs": [
        {
          "internalType": "bool",
          "name": "",
          "type": "bool"
        }
      ],
      "stateMutability": "nonpayable",
      "type": "function"
    },
    {
      "inputs": [],
      "name": "duration",
      "outputs": [
        {
          "internalType": "uint256",
          "name": "",
          "type": "uint256"
        }
      ],
      "stateMutability": "view",
      "type": "function"
    },
    {
      "inputs": [
        {
          "internalType": "address",
          "name": "spender",
          "type": "address"
        },
        {
          "internalType": "uint256",
          "name": "addedValue",
          "type": "uint256"
        }
      ],
      "name": "increaseAllowance",
      "outputs": [
        {
          "internalType": "bool",
          "name": "",
          "type": "bool"
        }
      ],
      "stateMutability": "nonpayable",
      "type": "function"
    },
    {
      "inputs": [],
      "name": "name",
      "outputs": [
        {
          "internalType": "string",
          "name": "",
          "type": "string"
        }
      ],
      "stateMutability": "view",
      "type": "function"
    },
    {
      "inputs": [],
      "name": "owner",
      "outputs": [
        {
          "internalType": "address",
          "name": "",
          "type": "address"
        }
      ],
      "stateMutability": "view",
      "type": "function"
    },
    {
      "inputs": [],
      "name": "price",
      "outputs": [
        {
          "internalType": "uint256",
          "name": "",
          "type": "uint256"
        }
      ],
      "stateMutability": "view",
      "type": "function"
    },
    {
      "inputs": [],
      "name": "renounceOwnership",
      "outputs": [],
      "stateMutability": "nonpayable",
      "type": "function"
    },
    {
      "inputs": [
        {
          "internalType": "uint256",
          "name": "_amount",
          "type": "uint256"
        }
      ],
      "name": "stake",
      "outputs": [],
      "stateMutability": "nonpayable",
      "type": "function"
    },
    {
      "inputs": [],
      "name": "stakeStartTime",
      "outputs": [
        {
          "internalType": "uint256",
          "name": "",
          "type": "uint256"
        }
      ],
      "stateMutability": "view",
      "type": "function"
    },
    {
      "inputs": [
        {
          "internalType": "address",
          "name": "",
          "type": "address"
        }
      ],
      "name": "staked",
      "outputs": [
        {
          "internalType": "bool",
          "name": "",
          "type": "bool"
        }
      ],
      "stateMutability": "view",
      "type": "function"
    },
    {
      "inputs": [],
      "name": "symbol",
      "outputs": [
        {
          "internalType": "string",
          "name": "",
          "type": "string"
        }
      ],
      "stateMutability": "view",
      "type": "function"
    },
    {
      "inputs": [],
      "name": "totalSupply",
      "outputs": [
        {
          "internalType": "uint256",
          "name": "",
          "type": "uint256"
        }
      ],
      "stateMutability": "view",
      "type": "function"
    },
    {
      "inputs": [
        {
          "internalType": "address",
          "name": "to",
          "type": "address"
        },
        {
          "internalType": "uint256",
          "name": "amount",
          "type": "uint256"
        }
      ],
      "name": "transfer",
      "outputs": [
        {
          "internalType": "bool",
          "name": "",
          "type": "bool"
        }
      ],
      "stateMutability": "nonpayable",
      "type": "function"
    },
    {
      "inputs": [
        {
          "internalType": "address",
          "name": "from",
          "type": "address"
        },
        {
          "internalType": "address",
          "name": "to",
          "type": "address"
        },
        {
          "internalType": "uint256",
          "name": "amount",
          "type": "uint256"
        }
      ],
      "name": "transferFrom",
      "outputs": [
        {
          "internalType": "bool",
          "name": "",
          "type": "bool"
        }
      ],
      "stateMutability": "nonpayable",
      "type": "function"
    },
    {
      "inputs": [
        {
          "internalType": "address",
          "name": "newOwner",
          "type": "address"
        }
      ],
      "name": "transferOwnership",
      "outputs": [],
      "stateMutability": "nonpayable",
      "type": "function"
    },
    {
      "inputs": [],
      "name": "unstake",
      "outputs": [],
      "stateMutability": "nonpayable",
      "type": "function"
    },
    {
      "inputs": [],
      "name": "withdrawEther",
      "outputs": [],
      "stateMutability": "nonpayable",
      "type": "function"
    }
  ],
  "bytecode": "0x60806040526001600a553480156200001657600080fd5b5060405162002f7538038062002f7583398181016040528101906200003c919062000330565b828281600390816200004f91906200060b565b5080600490816200006191906200060b565b50505062000084620000786200009460201b60201c565b6200009c60201b60201c565b80600981905550505050620006f2565b600033905090565b6000600560009054906101000a900473ffffffffffffffffffffffffffffffffffffffff16905081600560006101000a81548173ffffffffffffffffffffffffffffffffffffffff021916908373ffffffffffffffffffffffffffffffffffffffff1602179055508173ffffffffffffffffffffffffffffffffffffffff168173ffffffffffffffffffffffffffffffffffffffff167f8be0079c531659141344cd1fd0a4f28419497f9722a3daafe3b4186f6b6457e060405160405180910390a35050565b6000604051905090565b600080fd5b600080fd5b600080fd5b600080fd5b6000601f19601f8301169050919050565b7f4e487b7100000000000000000000000000000000000000000000000000000000600052604160045260246000fd5b620001cb8262000180565b810181811067ffffffffffffffff82111715620001ed57620001ec62000191565b5b80604052505050565b60006200020262000162565b9050620002108282620001c0565b919050565b600067ffffffffffffffff82111562000233576200023262000191565b5b6200023e8262000180565b9050602081019050919050565b60005b838110156200026b5780820151818401526020810190506200024e565b60008484015250505050565b60006200028e620002888462000215565b620001f6565b905082815260208101848484011115620002ad57620002ac6200017b565b5b620002ba8482856200024b565b509392505050565b600082601f830112620002da57620002d962000176565b5b8151620002ec84826020860162000277565b91505092915050565b6000819050919050565b6200030a81620002f5565b81146200031657600080fd5b50565b6000815190506200032a81620002ff565b92915050565b6000806000606084860312156200034c576200034b6200016c565b5b600084015167ffffffffffffffff8111156200036d576200036c62000171565b5b6200037b86828701620002c2565b935050602084015167ffffffffffffffff8111156200039f576200039e62000171565b5b620003ad86828701620002c2565b9250506040620003c08682870162000319565b9150509250925092565b600081519050919050565b7f4e487b7100000000000000000000000000000000000000000000000000000000600052602260045260246000fd5b600060028204905060018216806200041d57607f821691505b602082108103620004335762000432620003d5565b5b50919050565b60008190508160005260206000209050919050565b60006020601f8301049050919050565b600082821b905092915050565b6000600883026200049d7fffffffffffffffffffffffffffffffffffffffffffffffffffffffffffffffff826200045e565b620004a986836200045e565b95508019841693508086168417925050509392505050565b6000819050919050565b6000620004ec620004e6620004e084620002f5565b620004c1565b620002f5565b9050919050565b6000819050919050565b6200050883620004cb565b620005206200051782620004f3565b8484546200046b565b825550505050565b600090565b6200053762000528565b62000544818484620004fd565b505050565b5b818110156200056c57620005606000826200052d565b6001810190506200054a565b5050565b601f821115620005bb57620005858162000439565b62000590846200044e565b81016020851015620005a0578190505b620005b8620005af856200044e565b83018262000549565b50505b505050565b600082821c905092915050565b6000620005e060001984600802620005c0565b1980831691505092915050565b6000620005fb8383620005cd565b9150826002028217905092915050565b6200061682620003ca565b67ffffffffffffffff81111562000632576200063162000191565b5b6200063e825462000404565b6200064b82828562000570565b600060209050601f8311600181146200068357600084156200066e578287015190505b6200067a8582620005ed565b865550620006ea565b601f198416620006938662000439565b60005b82811015620006bd5784890151825560018201915060208501945060208101905062000696565b86831015620006dd5784890151620006d9601f891682620005cd565b8355505b6001600288020188555050505b505050505050565b61287380620007026000396000f3fe6080604052600436106101665760003560e01c80637362377b116100d1578063a457c2d71161008a578063d82e396211610064578063d82e396214610535578063dd62ed3e14610572578063ef40a670146105af578063f2fde38b146105ec57610166565b8063a457c2d714610492578063a694fc3a146104cf578063a9059cbb146104f857610166565b80637362377b146103925780637419f190146103a95780638da5cb5b146103d457806395d89b41146103ff57806398807d841461042a578063a035b1fe1461046757610166565b8063313ce56711610123578063313ce5671461027d5780633610724e146102a857806339509351146102c45780635f5152261461030157806370a082311461033e578063715018a61461037b57610166565b806306fdde031461016b578063095ea7b3146101965780630fb5a6b4146101d357806318160ddd146101fe57806323b872dd146102295780632def662014610266575b600080fd5b34801561017757600080fd5b50610180610615565b60405161018d91906118dd565b60405180910390f35b3480156101a257600080fd5b506101bd60048036038101906101b89190611998565b6106a7565b6040516101ca91906119f3565b60405180910390f35b3480156101df57600080fd5b506101e86106ca565b6040516101f59190611a1d565b60405180910390f35b34801561020a57600080fd5b506102136106d0565b6040516102209190611a1d565b60405180910390f35b34801561023557600080fd5b50610250600480360381019061024b9190611a38565b6106da565b60405161025d91906119f3565b60405180910390f35b34801561027257600080fd5b5061027b610709565b005b34801561028957600080fd5b5061029261089d565b60405161029f9190611aa7565b60405180910390f35b6102c260048036038101906102bd9190611ac2565b6108a6565b005b3480156102d057600080fd5b506102eb60048036038101906102e69190611998565b610a31565b6040516102f891906119f3565b60405180910390f35b34801561030d57600080fd5b5061032860048036038101906103239190611aef565b610a68565b6040516103359190611a1d565b60405180910390f35b34801561034a57600080fd5b5061036560048036038101906103609190611aef565b610a7a565b6040516103729190611a1d565b60405180910390f35b34801561038757600080fd5b50610390610ac2565b005b34801561039e57600080fd5b506103a7610ad6565b005b3480156103b557600080fd5b506103be610bdd565b6040516103cb9190611a1d565b60405180910390f35b3480156103e057600080fd5b506103e9610be3565b6040516103f69190611b2b565b60405180910390f35b34801561040b57600080fd5b50610414610c0d565b60405161042191906118dd565b60405180910390f35b34801561043657600080fd5b50610451600480360381019061044c9190611aef565b610c9f565b60405161045e91906119f3565b60405180910390f35b34801561047357600080fd5b5061047c610cbf565b6040516104899190611a1d565b60405180910390f35b34801561049e57600080fd5b506104b960048036038101906104b49190611998565b610cc5565b6040516104c691906119f3565b60405180910390f35b3480156104db57600080fd5b506104f660048036038101906104f19190611ac2565b610d3c565b005b34801561050457600080fd5b5061051f600480360381019061051a9190611998565b610efd565b60405161052c91906119f3565b60405180910390f35b34801561054157600080fd5b5061055c60048036038101906105579190611aef565b610f20565b6040516105699190611a1d565b60405180910390f35b34801561057e57600080fd5b5061059960048036038101906105949190611b46565b610fb4565b6040516105a69190611a1d565b60405180910390f35b3480156105bb57600080fd5b506105d660048036038101906105d19190611aef565b61103b565b6040516105e39190611a1d565b60405180910390f35b3480156105f857600080fd5b50610613600480360381019061060e9190611aef565b611053565b005b60606003805461062490611bb5565b80601f016020809104026020016040519081016040528092919081815260200182805461065090611bb5565b801561069d5780601f106106725761010080835404028352916020019161069d565b820191906000526020600020905b81548152906001019060200180831161068057829003601f168201915b5050505050905090565b6000806106b26110d6565b90506106bf8185856110de565b600191505092915050565b60095481565b6000600254905090565b6000806106e56110d6565b90506106f28582856112a7565b6106fd858585611333565b60019150509392505050565b6000600660003373ffffffffffffffffffffffffffffffffffffffff1673ffffffffffffffffffffffffffffffffffffffff168152602001908152602001600020541161078b576040517f08c379a000000000000000000000000000000000000000000000000000000000815260040161078290611c32565b60405180910390fd5b600061079633610f20565b9050600081600660003373ffffffffffffffffffffffffffffffffffffffff1673ffffffffffffffffffffffffffffffffffffffff168152602001908152602001600020546107e59190611c81565b90506000600660003373ffffffffffffffffffffffffffffffffffffffff1673ffffffffffffffffffffffffffffffffffffffff168152602001908152602001600020819055506000600760003373ffffffffffffffffffffffffffffffffffffffff1673ffffffffffffffffffffffffffffffffffffffff16815260200190815260200160002060006101000a81548160ff02191690831515021790555061088e30836115a9565b610899303383611333565b5050565b60006012905090565b600081116108e9576040517f08c379a00000000000000000000000000000000000000000000000000000000081526004016108e090611d01565b60405180910390fd5b6000600a54826108f99190611d21565b90508034101561093e576040517f08c379a000000000000000000000000000000000000000000000000000000000815260040161093590611daf565b60405180910390fd5b6109663361094a61089d565b600a6109569190611f02565b846109619190611d21565b6115a9565b80341115610a2d576000813461097c9190611f4d565b905060003373ffffffffffffffffffffffffffffffffffffffff16826040516109a490611fb2565b60006040518083038185875af1925050503d80600081146109e1576040519150601f19603f3d011682016040523d82523d6000602084013e6109e6565b606091505b5050905080610a2a576040517f08c379a0000000000000000000000000000000000000000000000000000000008152600401610a2190612039565b60405180910390fd5b50505b5050565b600080610a3c6110d6565b9050610a5d818585610a4e8589610fb4565b610a589190611c81565b6110de565b600191505092915050565b6000610a7382610a7a565b9050919050565b60008060008373ffffffffffffffffffffffffffffffffffffffff1673ffffffffffffffffffffffffffffffffffffffff168152602001908152602001600020549050919050565b610aca6116ff565b610ad4600061177d565b565b610ade6116ff565b600047905060008111610b26576040517f08c379a0000000000000000000000000000000000000000000000000000000008152600401610b1d906120a5565b60405180910390fd5b6000610b30610be3565b73ffffffffffffffffffffffffffffffffffffffff1682604051610b5390611fb2565b60006040518083038185875af1925050503d8060008114610b90576040519150601f19603f3d011682016040523d82523d6000602084013e610b95565b606091505b5050905080610bd9576040517f08c379a0000000000000000000000000000000000000000000000000000000008152600401610bd090612137565b60405180910390fd5b5050565b60085481565b6000600560009054906101000a900473ffffffffffffffffffffffffffffffffffffffff16905090565b606060048054610c1c90611bb5565b80601f0160208091040260200160405190810160405280929190818152602001828054610c4890611bb5565b8015610c955780601f10610c6a57610100808354040283529160200191610c95565b820191906000526020600020905b815481529060010190602001808311610c7857829003601f168201915b5050505050905090565b60076020528060005260406000206000915054906101000a900460ff1681565b600a5481565b600080610cd06110d6565b90506000610cde8286610fb4565b905083811015610d23576040517f08c379a0000000000000000000000000000000000000000000000000000000008152600401610d1a906121c9565b60405180910390fd5b610d3082868684036110de565b60019250505092915050565b60008111610d7f576040517f08c379a0000000000000000000000000000000000000000000000000000000008152600401610d7690612235565b60405180910390fd5b80610d8933610a7a565b1015610dca576040517f08c379a0000000000000000000000000000000000000000000000000000000008152600401610dc1906122a1565b60405180910390fd5b6000600660003373ffffffffffffffffffffffffffffffffffffffff1673ffffffffffffffffffffffffffffffffffffffff1681526020019081526020016000205414610e4c576040517f08c379a0000000000000000000000000000000000000000000000000000000008152600401610e439061230d565b60405180910390fd5b610e563082610efd565b5080600660003373ffffffffffffffffffffffffffffffffffffffff1673ffffffffffffffffffffffffffffffffffffffff168152602001908152602001600020819055506001600760003373ffffffffffffffffffffffffffffffffffffffff1673ffffffffffffffffffffffffffffffffffffffff16815260200190815260200160002060006101000a81548160ff0219169083151502179055504260088190555050565b600080610f086110d6565b9050610f15818585611333565b600191505092915050565b600080600660008473ffffffffffffffffffffffffffffffffffffffff1673ffffffffffffffffffffffffffffffffffffffff1681526020019081526020016000205490506000606482610f74919061235c565b9050600060085442610f869190611f4d565b9050600060095482610f98919061235c565b90508083610fa69190611d21565b925082945050505050919050565b6000600160008473ffffffffffffffffffffffffffffffffffffffff1673ffffffffffffffffffffffffffffffffffffffff16815260200190815260200160002060008373ffffffffffffffffffffffffffffffffffffffff1673ffffffffffffffffffffffffffffffffffffffff16815260200190815260200160002054905092915050565b60066020528060005260406000206000915090505481565b61105b6116ff565b600073ffffffffffffffffffffffffffffffffffffffff168173ffffffffffffffffffffffffffffffffffffffff16036110ca576040517f08c379a00000000000000000000000000000000000000000000000000000000081526004016110c1906123ff565b60405180910390fd5b6110d38161177d565b50565b600033905090565b600073ffffffffffffffffffffffffffffffffffffffff168373ffffffffffffffffffffffffffffffffffffffff160361114d576040517f08c379a000000000000000000000000000000000000000000000000000000000815260040161114490612491565b60405180910390fd5b600073ffffffffffffffffffffffffffffffffffffffff168273ffffffffffffffffffffffffffffffffffffffff16036111bc576040517f08c379a00000000000000000000000000000000000000000000000000000000081526004016111b390612523565b60405180910390fd5b80600160008573ffffffffffffffffffffffffffffffffffffffff1673ffffffffffffffffffffffffffffffffffffffff16815260200190815260200160002060008473ffffffffffffffffffffffffffffffffffffffff1673ffffffffffffffffffffffffffffffffffffffff168152602001908152602001600020819055508173ffffffffffffffffffffffffffffffffffffffff168373ffffffffffffffffffffffffffffffffffffffff167f8c5be1e5ebec7d5bd14f71427d1e84f3dd0314c0f7b2291e5b200ac8c7c3b9258360405161129a9190611a1d565b60405180910390a3505050565b60006112b38484610fb4565b90507fffffffffffffffffffffffffffffffffffffffffffffffffffffffffffffffff811461132d578181101561131f576040517f08c379a00000000000000000000000000000000000000000000000000000000081526004016113169061258f565b60405180910390fd5b61132c84848484036110de565b5b50505050565b600073ffffffffffffffffffffffffffffffffffffffff168373ffffffffffffffffffffffffffffffffffffffff16036113a2576040517f08c379a000000000000000000000000000000000000000000000000000000000815260040161139990612621565b60405180910390fd5b600073ffffffffffffffffffffffffffffffffffffffff168273ffffffffffffffffffffffffffffffffffffffff1603611411576040517f08c379a0000000000000000000000000000000000000000000000000000000008152600401611408906126b3565b60405180910390fd5b61141c838383611843565b60008060008573ffffffffffffffffffffffffffffffffffffffff1673ffffffffffffffffffffffffffffffffffffffff168152602001908152602001600020549050818110156114a2576040517f08c379a000000000000000000000000000000000000000000000000000000000815260040161149990612745565b60405180910390fd5b8181036000808673ffffffffffffffffffffffffffffffffffffffff1673ffffffffffffffffffffffffffffffffffffffff16815260200190815260200160002081905550816000808573ffffffffffffffffffffffffffffffffffffffff1673ffffffffffffffffffffffffffffffffffffffff168152602001908152602001600020600082825401925050819055508273ffffffffffffffffffffffffffffffffffffffff168473ffffffffffffffffffffffffffffffffffffffff167fddf252ad1be2c89b69c2b068fc378daa952ba7f163c4a11628f55a4df523b3ef846040516115909190611a1d565b60405180910390a36115a3848484611848565b50505050565b600073ffffffffffffffffffffffffffffffffffffffff168273ffffffffffffffffffffffffffffffffffffffff1603611618576040517f08c379a000000000000000000000000000000000000000000000000000000000815260040161160f906127b1565b60405180910390fd5b61162460008383611843565b80600260008282546116369190611c81565b92505081905550806000808473ffffffffffffffffffffffffffffffffffffffff1673ffffffffffffffffffffffffffffffffffffffff168152602001908152602001600020600082825401925050819055508173ffffffffffffffffffffffffffffffffffffffff16600073ffffffffffffffffffffffffffffffffffffffff167fddf252ad1be2c89b69c2b068fc378daa952ba7f163c4a11628f55a4df523b3ef836040516116e79190611a1d565b60405180910390a36116fb60008383611848565b5050565b6117076110d6565b73ffffffffffffffffffffffffffffffffffffffff16611725610be3565b73ffffffffffffffffffffffffffffffffffffffff161461177b576040517f08c379a00000000000000000000000000000000000000000000000000000000081526004016117729061281d565b60405180910390fd5b565b6000600560009054906101000a900473ffffffffffffffffffffffffffffffffffffffff16905081600560006101000a81548173ffffffffffffffffffffffffffffffffffffffff021916908373ffffffffffffffffffffffffffffffffffffffff1602179055508173ffffffffffffffffffffffffffffffffffffffff168173ffffffffffffffffffffffffffffffffffffffff167f8be0079c531659141344cd1fd0a4f28419497f9722a3daafe3b4186f6b6457e060405160405180910390a35050565b505050565b505050565b600081519050919050565b600082825260208201905092915050565b60005b8381101561188757808201518184015260208101905061186c565b60008484015250505050565b6000601f19601f8301169050919050565b60006118af8261184d565b6118b98185611858565b93506118c9818560208601611869565b6118d281611893565b840191505092915050565b600060208201905081810360008301526118f781846118a4565b905092915050565b600080fd5b600073ffffffffffffffffffffffffffffffffffffffff82169050919050565b600061192f82611904565b9050919050565b61193f81611924565b811461194a57600080fd5b50565b60008135905061195c81611936565b92915050565b6000819050919050565b61197581611962565b811461198057600080fd5b50565b6000813590506119928161196c565b92915050565b600080604083850312156119af576119ae6118ff565b5b60006119bd8582860161194d565b92505060206119ce85828601611983565b9150509250929050565b60008115159050919050565b6119ed816119d8565b82525050565b6000602082019050611a0860008301846119e4565b92915050565b611a1781611962565b82525050565b6000602082019050611a326000830184611a0e565b92915050565b600080600060608486031215611a5157611a506118ff565b5b6000611a5f8682870161194d565b9350506020611a708682870161194d565b9250506040611a8186828701611983565b9150509250925092565b600060ff82169050919050565b611aa181611a8b565b82525050565b6000602082019050611abc6000830184611a98565b92915050565b600060208284031215611ad857611ad76118ff565b5b6000611ae684828501611983565b91505092915050565b600060208284031215611b0557611b046118ff565b5b6000611b138482850161194d565b91505092915050565b611b2581611924565b82525050565b6000602082019050611b406000830184611b1c565b92915050565b60008060408385031215611b5d57611b5c6118ff565b5b6000611b6b8582860161194d565b9250506020611b7c8582860161194d565b9150509250929050565b7f4e487b7100000000000000000000000000000000000000000000000000000000600052602260045260246000fd5b60006002820490506001821680611bcd57607f821691505b602082108103611be057611bdf611b86565b5b50919050565b7f4e6f20746f6b656e73207374616b656400000000000000000000000000000000600082015250565b6000611c1c601083611858565b9150611c2782611be6565b602082019050919050565b60006020820190508181036000830152611c4b81611c0f565b9050919050565b7f4e487b7100000000000000000000000000000000000000000000000000000000600052601160045260246000fd5b6000611c8c82611962565b9150611c9783611962565b9250828201905080821115611caf57611cae611c52565b5b92915050565b7f496e76616c696420696e70757400000000000000000000000000000000000000600082015250565b6000611ceb600d83611858565b9150611cf682611cb5565b602082019050919050565b60006020820190508181036000830152611d1a81611cde565b9050919050565b6000611d2c82611962565b9150611d3783611962565b9250828202611d4581611962565b91508282048414831517611d5c57611d5b611c52565b5b5092915050565b7f496e73756666696369656e74207061796d656e74000000000000000000000000600082015250565b6000611d99601483611858565b9150611da482611d63565b602082019050919050565b60006020820190508181036000830152611dc881611d8c565b9050919050565b60008160011c9050919050565b6000808291508390505b6001851115611e2657808604811115611e0257611e01611c52565b5b6001851615611e115780820291505b8081029050611e1f85611dcf565b9450611de6565b94509492505050565b600082611e3f5760019050611efb565b81611e4d5760009050611efb565b8160018114611e635760028114611e6d57611e9c565b6001915050611efb565b60ff841115611e7f57611e7e611c52565b5b8360020a915084821115611e9657611e95611c52565b5b50611efb565b5060208310610133831016604e8410600b8410161715611ed15782820a905083811115611ecc57611ecb611c52565b5b611efb565b611ede8484846001611ddc565b92509050818404811115611ef557611ef4611c52565b5b81810290505b9392505050565b6000611f0d82611962565b9150611f1883611a8b565b9250611f457fffffffffffffffffffffffffffffffffffffffffffffffffffffffffffffffff8484611e2f565b905092915050565b6000611f5882611962565b9150611f6383611962565b9250828203905081811115611f7b57611f7a611c52565b5b92915050565b600081905092915050565b50565b6000611f9c600083611f81565b9150611fa782611f8c565b600082019050919050565b6000611fbd82611f8f565b9150819050919050565b7f4661696c656420746f2072657475726e20756e7573656420657468657220746f60008201527f2073656e64657200000000000000000000000000000000000000000000000000602082015250565b6000612023602783611858565b915061202e82611fc7565b604082019050919050565b6000602082019050818103600083015261205281612016565b9050919050565b7f4e6f20457468657220617661696c61626c6520746f2077697468647261770000600082015250565b600061208f601e83611858565b915061209a82612059565b602082019050919050565b600060208201905081810360008301526120be81612082565b9050919050565b7f4661696c656420746f207472616e7366657220457468657220746f206f776e6560008201527f7200000000000000000000000000000000000000000000000000000000000000602082015250565b6000612121602183611858565b915061212c826120c5565b604082019050919050565b6000602082019050818103600083015261215081612114565b9050919050565b7f45524332303a2064656372656173656420616c6c6f77616e63652062656c6f7760008201527f207a65726f000000000000000000000000000000000000000000000000000000602082015250565b60006121b3602583611858565b91506121be82612157565b604082019050919050565b600060208201905081810360008301526121e2816121a6565b9050919050565b7f43616e6e6f74207374616b65203020746f6b656e730000000000000000000000600082015250565b600061221f601583611858565b915061222a826121e9565b602082019050919050565b6000602082019050818103600083015261224e81612212565b9050919050565b7f4e6f7420656e6f75676820746f6b656e73000000000000000000000000000000600082015250565b600061228b601183611858565b915061229682612255565b602082019050919050565b600060208201905081810360008301526122ba8161227e565b9050919050565b7f546f6b656e7320616c7265616479207374616b65640000000000000000000000600082015250565b60006122f7601583611858565b9150612302826122c1565b602082019050919050565b60006020820190508181036000830152612326816122ea565b9050919050565b7f4e487b7100000000000000000000000000000000000000000000000000000000600052601260045260246000fd5b600061236782611962565b915061237283611962565b9250826123825761238161232d565b5b828204905092915050565b7f4f776e61626c653a206e6577206f776e657220697320746865207a65726f206160008201527f6464726573730000000000000000000000000000000000000000000000000000602082015250565b60006123e9602683611858565b91506123f48261238d565b604082019050919050565b60006020820190508181036000830152612418816123dc565b9050919050565b7f45524332303a20617070726f76652066726f6d20746865207a65726f2061646460008201527f7265737300000000000000000000000000000000000000000000000000000000602082015250565b600061247b602483611858565b91506124868261241f565b604082019050919050565b600060208201905081810360008301526124aa8161246e565b9050919050565b7f45524332303a20617070726f766520746f20746865207a65726f20616464726560008201527f7373000000000000000000000000000000000000000000000000000000000000602082015250565b600061250d602283611858565b9150612518826124b1565b604082019050919050565b6000602082019050818103600083015261253c81612500565b9050919050565b7f45524332303a20696e73756666696369656e7420616c6c6f77616e6365000000600082015250565b6000612579601d83611858565b915061258482612543565b602082019050919050565b600060208201905081810360008301526125a88161256c565b9050919050565b7f45524332303a207472616e736665722066726f6d20746865207a65726f20616460008201527f6472657373000000000000000000000000000000000000000000000000000000602082015250565b600061260b602583611858565b9150612616826125af565b604082019050919050565b6000602082019050818103600083015261263a816125fe565b9050919050565b7f45524332303a207472616e7366657220746f20746865207a65726f206164647260008201527f6573730000000000000000000000000000000000000000000000000000000000602082015250565b600061269d602383611858565b91506126a882612641565b604082019050919050565b600060208201905081810360008301526126cc81612690565b9050919050565b7f45524332303a207472616e7366657220616d6f756e742065786365656473206260008201527f616c616e63650000000000000000000000000000000000000000000000000000602082015250565b600061272f602683611858565b915061273a826126d3565b604082019050919050565b6000602082019050818103600083015261275e81612722565b9050919050565b7f45524332303a206d696e7420746f20746865207a65726f206164647265737300600082015250565b600061279b601f83611858565b91506127a682612765565b602082019050919050565b600060208201905081810360008301526127ca8161278e565b9050919050565b7f4f776e61626c653a2063616c6c6572206973206e6f7420746865206f776e6572600082015250565b6000612807602083611858565b9150612812826127d1565b602082019050919050565b60006020820190508181036000830152612836816127fa565b905091905056fea2646970667358221220e6bd73b617eeb8c7230e44fec109f67c8c5e92b0a391300d3edd28c28e2064c164736f6c63430008110033",
  "linkReferences": {},
  "deployedLinkReferences": {}
}