{
  "_format": "hh-sol-artifact-1",
  "contractName": "StakingContract",
  "sourceName": "contracts/ERC20staking.sol",
  "abi": [
    {
      "inputs": [
        {
          "internalType": "string",
          "name": "name",
          "type": "string"
        },
        {
          "internalType": "string",
          "name": "symbol",
          "type": "string"
        },
        {
          "internalType": "uint256",
          "name": "_duration",
          "type": "uint256"
        }
      ],
      "stateMutability": "nonpayable",
      "type": "constructor"
    },
    {
      "anonymous": false,
      "inputs": [
        {
          "indexed": true,
          "internalType": "address",
          "name": "owner",
          "type": "address"
        },
        {
          "indexed": true,
          "internalType": "address",
          "name": "spender",
          "type": "address"
        },
        {
          "indexed": false,
          "internalType": "uint256",
          "name": "value",
          "type": "uint256"
        }
      ],
      "name": "Approval",
      "type": "event"
    },
    {
      "anonymous": false,
      "inputs": [
        {
          "indexed": true,
          "internalType": "address",
          "name": "previousOwner",
          "type": "address"
        },
        {
          "indexed": true,
          "internalType": "address",
          "name": "newOwner",
          "type": "address"
        }
      ],
      "name": "OwnershipTransferred",
      "type": "event"
    },
    {
      "anonymous": false,
      "inputs": [
        {
          "indexed": true,
          "internalType": "address",
          "name": "from",
          "type": "address"
        },
        {
          "indexed": true,
          "internalType": "address",
          "name": "to",
          "type": "address"
        },
        {
          "indexed": false,
          "internalType": "uint256",
          "name": "value",
          "type": "uint256"
        }
      ],
      "name": "Transfer",
      "type": "event"
    },
    {
      "inputs": [
        {
          "internalType": "address",
          "name": "owner",
          "type": "address"
        },
        {
          "internalType": "address",
          "name": "spender",
          "type": "address"
        }
      ],
      "name": "allowance",
      "outputs": [
        {
          "internalType": "uint256",
          "name": "",
          "type": "uint256"
        }
      ],
      "stateMutability": "view",
      "type": "function"
    },
    {
      "inputs": [
        {
          "internalType": "address",
          "name": "",
          "type": "address"
        }
      ],
      "name": "amountStaked",
      "outputs": [
        {
          "internalType": "uint256",
          "name": "",
          "type": "uint256"
        }
      ],
      "stateMutability": "view",
      "type": "function"
    },
    {
      "inputs": [
        {
          "internalType": "address",
          "name": "spender",
          "type": "address"
        },
        {
          "internalType": "uint256",
          "name": "amount",
          "type": "uint256"
        }
      ],
      "name": "approve",
      "outputs": [
        {
          "internalType": "bool",
          "name": "",
          "type": "bool"
        }
      ],
      "stateMutability": "nonpayable",
      "type": "function"
    },
    {
      "inputs": [
        {
          "internalType": "address",
          "name": "account",
          "type": "address"
        }
      ],
      "name": "balanceOf",
      "outputs": [
        {
          "internalType": "uint256",
          "name": "",
          "type": "uint256"
        }
      ],
      "stateMutability": "view",
      "type": "function"
    },
    {
      "inputs": [
        {
          "internalType": "uint256",
          "name": "numTokens",
          "type": "uint256"
        }
      ],
      "name": "buyTokens",
      "outputs": [],
      "stateMutability": "payable",
      "type": "function"
    },
    {
      "inputs": [
        {
          "internalType": "address",
          "name": "_staker",
          "type": "address"
        }
      ],
      "name": "calculateReward",
      "outputs": [
        {
          "internalType": "uint256",
          "name": "",
          "type": "uint256"
        }
      ],
      "stateMutability": "view",
      "type": "function"
    },
    {
      "inputs": [
        {
          "internalType": "address",
          "name": "_user",
          "type": "address"
        }
      ],
      "name": "checkBalance",
      "outputs": [
        {
          "internalType": "uint256",
          "name": "",
          "type": "uint256"
        }
      ],
      "stateMutability": "view",
      "type": "function"
    },
    {
      "inputs": [],
      "name": "decimals",
      "outputs": [
        {
          "internalType": "uint8",
          "name": "",
          "type": "uint8"
        }
      ],
      "stateMutability": "view",
      "type": "function"
    },
    {
      "inputs": [
        {
          "internalType": "address",
          "name": "spender",
          "type": "address"
        },
        {
          "internalType": "uint256",
          "name": "subtractedValue",
          "type": "uint256"
        }
      ],
      "name": "decreaseAllowance",
      "outputs": [
        {
          "internalType": "bool",
          "name": "",
          "type": "bool"
        }
      ],
      "stateMutability": "nonpayable",
      "type": "function"
    },
    {
      "inputs": [],
      "name": "duration",
      "outputs": [
        {
          "internalType": "uint256",
          "name": "",
          "type": "uint256"
        }
      ],
      "stateMutability": "view",
      "type": "function"
    },
    {
      "inputs": [
        {
          "internalType": "address",
          "name": "spender",
          "type": "address"
        },
        {
          "internalType": "uint256",
          "name": "addedValue",
          "type": "uint256"
        }
      ],
      "name": "increaseAllowance",
      "outputs": [
        {
          "internalType": "bool",
          "name": "",
          "type": "bool"
        }
      ],
      "stateMutability": "nonpayable",
      "type": "function"
    },
    {
      "inputs": [],
      "name": "name",
      "outputs": [
        {
          "internalType": "string",
          "name": "",
          "type": "string"
        }
      ],
      "stateMutability": "view",
      "type": "function"
    },
    {
      "inputs": [],
      "name": "owner",
      "outputs": [
        {
          "internalType": "address",
          "name": "",
          "type": "address"
        }
      ],
      "stateMutability": "view",
      "type": "function"
    },
    {
      "inputs": [],
      "name": "price",
      "outputs": [
        {
          "internalType": "uint256",
          "name": "",
          "type": "uint256"
        }
      ],
      "stateMutability": "view",
      "type": "function"
    },
    {
      "inputs": [],
      "name": "renounceOwnership",
      "outputs": [],
      "stateMutability": "nonpayable",
      "type": "function"
    },
    {
      "inputs": [
        {
          "internalType": "uint256",
          "name": "_amount",
          "type": "uint256"
        }
      ],
      "name": "stake",
      "outputs": [],
      "stateMutability": "nonpayable",
      "type": "function"
    },
    {
      "inputs": [],
      "name": "stakeStartTime",
      "outputs": [
        {
          "internalType": "uint256",
          "name": "",
          "type": "uint256"
        }
      ],
      "stateMutability": "view",
      "type": "function"
    },
    {
      "inputs": [
        {
          "internalType": "address",
          "name": "",
          "type": "address"
        }
      ],
      "name": "staked",
      "outputs": [
        {
          "internalType": "bool",
          "name": "",
          "type": "bool"
        }
      ],
      "stateMutability": "view",
      "type": "function"
    },
    {
      "inputs": [],
      "name": "symbol",
      "outputs": [
        {
          "internalType": "string",
          "name": "",
          "type": "string"
        }
      ],
      "stateMutability": "view",
      "type": "function"
    },
    {
      "inputs": [],
      "name": "totalSupply",
      "outputs": [
        {
          "internalType": "uint256",
          "name": "",
          "type": "uint256"
        }
      ],
      "stateMutability": "view",
      "type": "function"
    },
    {
      "inputs": [
        {
          "internalType": "address",
          "name": "to",
          "type": "address"
        },
        {
          "internalType": "uint256",
          "name": "amount",
          "type": "uint256"
        }
      ],
      "name": "transfer",
      "outputs": [
        {
          "internalType": "bool",
          "name": "",
          "type": "bool"
        }
      ],
      "stateMutability": "nonpayable",
      "type": "function"
    },
    {
      "inputs": [
        {
          "internalType": "address",
          "name": "from",
          "type": "address"
        },
        {
          "internalType": "address",
          "name": "to",
          "type": "address"
        },
        {
          "internalType": "uint256",
          "name": "amount",
          "type": "uint256"
        }
      ],
      "name": "transferFrom",
      "outputs": [
        {
          "internalType": "bool",
          "name": "",
          "type": "bool"
        }
      ],
      "stateMutability": "nonpayable",
      "type": "function"
    },
    {
      "inputs": [
        {
          "internalType": "address",
          "name": "newOwner",
          "type": "address"
        }
      ],
      "name": "transferOwnership",
      "outputs": [],
      "stateMutability": "nonpayable",
      "type": "function"
    },
    {
      "inputs": [],
      "name": "unstake",
      "outputs": [],
      "stateMutability": "nonpayable",
      "type": "function"
    },
    {
      "inputs": [],
      "name": "withdrawEther",
      "outputs": [],
      "stateMutability": "nonpayable",
      "type": "function"
    }
  ],
  "bytecode": "0x60806040526001600a553480156200001657600080fd5b5060405162002dd938038062002dd983398181016040528101906200003c919062000330565b828281600390816200004f91906200060b565b5080600490816200006191906200060b565b50505062000084620000786200009460201b60201c565b6200009c60201b60201c565b80600981905550505050620006f2565b600033905090565b6000600560009054906101000a900473ffffffffffffffffffffffffffffffffffffffff16905081600560006101000a81548173ffffffffffffffffffffffffffffffffffffffff021916908373ffffffffffffffffffffffffffffffffffffffff1602179055508173ffffffffffffffffffffffffffffffffffffffff168173ffffffffffffffffffffffffffffffffffffffff167f8be0079c531659141344cd1fd0a4f28419497f9722a3daafe3b4186f6b6457e060405160405180910390a35050565b6000604051905090565b600080fd5b600080fd5b600080fd5b600080fd5b6000601f19601f8301169050919050565b7f4e487b7100000000000000000000000000000000000000000000000000000000600052604160045260246000fd5b620001cb8262000180565b810181811067ffffffffffffffff82111715620001ed57620001ec62000191565b5b80604052505050565b60006200020262000162565b9050620002108282620001c0565b919050565b600067ffffffffffffffff82111562000233576200023262000191565b5b6200023e8262000180565b9050602081019050919050565b60005b838110156200026b5780820151818401526020810190506200024e565b60008484015250505050565b60006200028e620002888462000215565b620001f6565b905082815260208101848484011115620002ad57620002ac6200017b565b5b620002ba8482856200024b565b509392505050565b600082601f830112620002da57620002d962000176565b5b8151620002ec84826020860162000277565b91505092915050565b6000819050919050565b6200030a81620002f5565b81146200031657600080fd5b50565b6000815190506200032a81620002ff565b92915050565b6000806000606084860312156200034c576200034b6200016c565b5b600084015167ffffffffffffffff8111156200036d576200036c62000171565b5b6200037b86828701620002c2565b935050602084015167ffffffffffffffff8111156200039f576200039e62000171565b5b620003ad86828701620002c2565b9250506040620003c08682870162000319565b9150509250925092565b600081519050919050565b7f4e487b7100000000000000000000000000000000000000000000000000000000600052602260045260246000fd5b600060028204905060018216806200041d57607f821691505b602082108103620004335762000432620003d5565b5b50919050565b60008190508160005260206000209050919050565b60006020601f8301049050919050565b600082821b905092915050565b6000600883026200049d7fffffffffffffffffffffffffffffffffffffffffffffffffffffffffffffffff826200045e565b620004a986836200045e565b95508019841693508086168417925050509392505050565b6000819050919050565b6000620004ec620004e6620004e084620002f5565b620004c1565b620002f5565b9050919050565b6000819050919050565b6200050883620004cb565b620005206200051782620004f3565b8484546200046b565b825550505050565b600090565b6200053762000528565b62000544818484620004fd565b505050565b5b818110156200056c57620005606000826200052d565b6001810190506200054a565b5050565b601f821115620005bb57620005858162000439565b62000590846200044e565b81016020851015620005a0578190505b620005b8620005af856200044e565b83018262000549565b50505b505050565b600082821c905092915050565b6000620005e060001984600802620005c0565b1980831691505092915050565b6000620005fb8383620005cd565b9150826002028217905092915050565b6200061682620003ca565b67ffffffffffffffff81111562000632576200063162000191565b5b6200063e825462000404565b6200064b82828562000570565b600060209050601f8311600181146200068357600084156200066e578287015190505b6200067a8582620005ed565b865550620006ea565b601f198416620006938662000439565b60005b82811015620006bd5784890151825560018201915060208501945060208101905062000696565b86831015620006dd5784890151620006d9601f891682620005cd565b8355505b6001600288020188555050505b505050505050565b6126d780620007026000396000f3fe6080604052600436106101665760003560e01c80637362377b116100d1578063a457c2d71161008a578063d82e396211610064578063d82e396214610535578063dd62ed3e14610572578063ef40a670146105af578063f2fde38b146105ec57610166565b8063a457c2d714610492578063a694fc3a146104cf578063a9059cbb146104f857610166565b80637362377b146103925780637419f190146103a95780638da5cb5b146103d457806395d89b41146103ff57806398807d841461042a578063a035b1fe1461046757610166565b8063313ce56711610123578063313ce5671461027d5780633610724e146102a857806339509351146102c45780635f5152261461030157806370a082311461033e578063715018a61461037b57610166565b806306fdde031461016b578063095ea7b3146101965780630fb5a6b4146101d357806318160ddd146101fe57806323b872dd146102295780632def662014610266575b600080fd5b34801561017757600080fd5b50610180610615565b60405161018d91906118bf565b60405180910390f35b3480156101a257600080fd5b506101bd60048036038101906101b8919061197a565b6106a7565b6040516101ca91906119d5565b60405180910390f35b3480156101df57600080fd5b506101e86106ca565b6040516101f591906119ff565b60405180910390f35b34801561020a57600080fd5b506102136106d0565b60405161022091906119ff565b60405180910390f35b34801561023557600080fd5b50610250600480360381019061024b9190611a1a565b6106da565b60405161025d91906119d5565b60405180910390f35b34801561027257600080fd5b5061027b610709565b005b34801561028957600080fd5b5061029261089d565b60405161029f9190611a89565b60405180910390f35b6102c260048036038101906102bd9190611aa4565b6108a6565b005b3480156102d057600080fd5b506102eb60048036038101906102e6919061197a565b610a13565b6040516102f891906119d5565b60405180910390f35b34801561030d57600080fd5b5061032860048036038101906103239190611ad1565b610a4a565b60405161033591906119ff565b60405180910390f35b34801561034a57600080fd5b5061036560048036038101906103609190611ad1565b610a5c565b60405161037291906119ff565b60405180910390f35b34801561038757600080fd5b50610390610aa4565b005b34801561039e57600080fd5b506103a7610ab8565b005b3480156103b557600080fd5b506103be610bbf565b6040516103cb91906119ff565b60405180910390f35b3480156103e057600080fd5b506103e9610bc5565b6040516103f69190611b0d565b60405180910390f35b34801561040b57600080fd5b50610414610bef565b60405161042191906118bf565b60405180910390f35b34801561043657600080fd5b50610451600480360381019061044c9190611ad1565b610c81565b60405161045e91906119d5565b60405180910390f35b34801561047357600080fd5b5061047c610ca1565b60405161048991906119ff565b60405180910390f35b34801561049e57600080fd5b506104b960048036038101906104b4919061197a565b610ca7565b6040516104c691906119d5565b60405180910390f35b3480156104db57600080fd5b506104f660048036038101906104f19190611aa4565b610d1e565b005b34801561050457600080fd5b5061051f600480360381019061051a919061197a565b610edf565b60405161052c91906119d5565b60405180910390f35b34801561054157600080fd5b5061055c60048036038101906105579190611ad1565b610f02565b60405161056991906119ff565b60405180910390f35b34801561057e57600080fd5b5061059960048036038101906105949190611b28565b610f96565b6040516105a691906119ff565b60405180910390f35b3480156105bb57600080fd5b506105d660048036038101906105d19190611ad1565b61101d565b6040516105e391906119ff565b60405180910390f35b3480156105f857600080fd5b50610613600480360381019061060e9190611ad1565b611035565b005b60606003805461062490611b97565b80601f016020809104026020016040519081016040528092919081815260200182805461065090611b97565b801561069d5780601f106106725761010080835404028352916020019161069d565b820191906000526020600020905b81548152906001019060200180831161068057829003601f168201915b5050505050905090565b6000806106b26110b8565b90506106bf8185856110c0565b600191505092915050565b60095481565b6000600254905090565b6000806106e56110b8565b90506106f2858285611289565b6106fd858585611315565b60019150509392505050565b6000600660003373ffffffffffffffffffffffffffffffffffffffff1673ffffffffffffffffffffffffffffffffffffffff168152602001908152602001600020541161078b576040517f08c379a000000000000000000000000000000000000000000000000000000000815260040161078290611c14565b60405180910390fd5b600061079633610f02565b9050600081600660003373ffffffffffffffffffffffffffffffffffffffff1673ffffffffffffffffffffffffffffffffffffffff168152602001908152602001600020546107e59190611c63565b90506000600660003373ffffffffffffffffffffffffffffffffffffffff1673ffffffffffffffffffffffffffffffffffffffff168152602001908152602001600020819055506000600760003373ffffffffffffffffffffffffffffffffffffffff1673ffffffffffffffffffffffffffffffffffffffff16815260200190815260200160002060006101000a81548160ff02191690831515021790555061088e308361158b565b610899303383611315565b5050565b60006012905090565b600081116108e9576040517f08c379a00000000000000000000000000000000000000000000000000000000081526004016108e090611ce3565b60405180910390fd5b6000600a54826108f99190611d03565b90508034101561093e576040517f08c379a000000000000000000000000000000000000000000000000000000000815260040161093590611d91565b60405180910390fd5b610948338361158b565b80341115610a0f576000813461095e9190611db1565b905060003373ffffffffffffffffffffffffffffffffffffffff168260405161098690611e16565b60006040518083038185875af1925050503d80600081146109c3576040519150601f19603f3d011682016040523d82523d6000602084013e6109c8565b606091505b5050905080610a0c576040517f08c379a0000000000000000000000000000000000000000000000000000000008152600401610a0390611e9d565b60405180910390fd5b50505b5050565b600080610a1e6110b8565b9050610a3f818585610a308589610f96565b610a3a9190611c63565b6110c0565b600191505092915050565b6000610a5582610a5c565b9050919050565b60008060008373ffffffffffffffffffffffffffffffffffffffff1673ffffffffffffffffffffffffffffffffffffffff168152602001908152602001600020549050919050565b610aac6116e1565b610ab6600061175f565b565b610ac06116e1565b600047905060008111610b08576040517f08c379a0000000000000000000000000000000000000000000000000000000008152600401610aff90611f09565b60405180910390fd5b6000610b12610bc5565b73ffffffffffffffffffffffffffffffffffffffff1682604051610b3590611e16565b60006040518083038185875af1925050503d8060008114610b72576040519150601f19603f3d011682016040523d82523d6000602084013e610b77565b606091505b5050905080610bbb576040517f08c379a0000000000000000000000000000000000000000000000000000000008152600401610bb290611f9b565b60405180910390fd5b5050565b60085481565b6000600560009054906101000a900473ffffffffffffffffffffffffffffffffffffffff16905090565b606060048054610bfe90611b97565b80601f0160208091040260200160405190810160405280929190818152602001828054610c2a90611b97565b8015610c775780601f10610c4c57610100808354040283529160200191610c77565b820191906000526020600020905b815481529060010190602001808311610c5a57829003601f168201915b5050505050905090565b60076020528060005260406000206000915054906101000a900460ff1681565b600a5481565b600080610cb26110b8565b90506000610cc08286610f96565b905083811015610d05576040517f08c379a0000000000000000000000000000000000000000000000000000000008152600401610cfc9061202d565b60405180910390fd5b610d1282868684036110c0565b60019250505092915050565b60008111610d61576040517f08c379a0000000000000000000000000000000000000000000000000000000008152600401610d5890612099565b60405180910390fd5b80610d6b33610a5c565b1015610dac576040517f08c379a0000000000000000000000000000000000000000000000000000000008152600401610da390612105565b60405180910390fd5b6000600660003373ffffffffffffffffffffffffffffffffffffffff1673ffffffffffffffffffffffffffffffffffffffff1681526020019081526020016000205414610e2e576040517f08c379a0000000000000000000000000000000000000000000000000000000008152600401610e2590612171565b60405180910390fd5b610e383082610edf565b5080600660003373ffffffffffffffffffffffffffffffffffffffff1673ffffffffffffffffffffffffffffffffffffffff168152602001908152602001600020819055506001600760003373ffffffffffffffffffffffffffffffffffffffff1673ffffffffffffffffffffffffffffffffffffffff16815260200190815260200160002060006101000a81548160ff0219169083151502179055504260088190555050565b600080610eea6110b8565b9050610ef7818585611315565b600191505092915050565b600080600660008473ffffffffffffffffffffffffffffffffffffffff1673ffffffffffffffffffffffffffffffffffffffff1681526020019081526020016000205490506000606482610f5691906121c0565b9050600060085442610f689190611db1565b9050600060095482610f7a91906121c0565b90508083610f889190611d03565b925082945050505050919050565b6000600160008473ffffffffffffffffffffffffffffffffffffffff1673ffffffffffffffffffffffffffffffffffffffff16815260200190815260200160002060008373ffffffffffffffffffffffffffffffffffffffff1673ffffffffffffffffffffffffffffffffffffffff16815260200190815260200160002054905092915050565b60066020528060005260406000206000915090505481565b61103d6116e1565b600073ffffffffffffffffffffffffffffffffffffffff168173ffffffffffffffffffffffffffffffffffffffff16036110ac576040517f08c379a00000000000000000000000000000000000000000000000000000000081526004016110a390612263565b60405180910390fd5b6110b58161175f565b50565b600033905090565b600073ffffffffffffffffffffffffffffffffffffffff168373ffffffffffffffffffffffffffffffffffffffff160361112f576040517f08c379a0000000000000000000000000000000000000000000000000000000008152600401611126906122f5565b60405180910390fd5b600073ffffffffffffffffffffffffffffffffffffffff168273ffffffffffffffffffffffffffffffffffffffff160361119e576040517f08c379a000000000000000000000000000000000000000000000000000000000815260040161119590612387565b60405180910390fd5b80600160008573ffffffffffffffffffffffffffffffffffffffff1673ffffffffffffffffffffffffffffffffffffffff16815260200190815260200160002060008473ffffffffffffffffffffffffffffffffffffffff1673ffffffffffffffffffffffffffffffffffffffff168152602001908152602001600020819055508173ffffffffffffffffffffffffffffffffffffffff168373ffffffffffffffffffffffffffffffffffffffff167f8c5be1e5ebec7d5bd14f71427d1e84f3dd0314c0f7b2291e5b200ac8c7c3b9258360405161127c91906119ff565b60405180910390a3505050565b60006112958484610f96565b90507fffffffffffffffffffffffffffffffffffffffffffffffffffffffffffffffff811461130f5781811015611301576040517f08c379a00000000000000000000000000000000000000000000000000000000081526004016112f8906123f3565b60405180910390fd5b61130e84848484036110c0565b5b50505050565b600073ffffffffffffffffffffffffffffffffffffffff168373ffffffffffffffffffffffffffffffffffffffff1603611384576040517f08c379a000000000000000000000000000000000000000000000000000000000815260040161137b90612485565b60405180910390fd5b600073ffffffffffffffffffffffffffffffffffffffff168273ffffffffffffffffffffffffffffffffffffffff16036113f3576040517f08c379a00000000000000000000000000000000000000000000000000000000081526004016113ea90612517565b60405180910390fd5b6113fe838383611825565b60008060008573ffffffffffffffffffffffffffffffffffffffff1673ffffffffffffffffffffffffffffffffffffffff16815260200190815260200160002054905081811015611484576040517f08c379a000000000000000000000000000000000000000000000000000000000815260040161147b906125a9565b60405180910390fd5b8181036000808673ffffffffffffffffffffffffffffffffffffffff1673ffffffffffffffffffffffffffffffffffffffff16815260200190815260200160002081905550816000808573ffffffffffffffffffffffffffffffffffffffff1673ffffffffffffffffffffffffffffffffffffffff168152602001908152602001600020600082825401925050819055508273ffffffffffffffffffffffffffffffffffffffff168473ffffffffffffffffffffffffffffffffffffffff167fddf252ad1be2c89b69c2b068fc378daa952ba7f163c4a11628f55a4df523b3ef8460405161157291906119ff565b60405180910390a361158584848461182a565b50505050565b600073ffffffffffffffffffffffffffffffffffffffff168273ffffffffffffffffffffffffffffffffffffffff16036115fa576040517f08c379a00000000000000000000000000000000000000000000000000000000081526004016115f190612615565b60405180910390fd5b61160660008383611825565b80600260008282546116189190611c63565b92505081905550806000808473ffffffffffffffffffffffffffffffffffffffff1673ffffffffffffffffffffffffffffffffffffffff168152602001908152602001600020600082825401925050819055508173ffffffffffffffffffffffffffffffffffffffff16600073ffffffffffffffffffffffffffffffffffffffff167fddf252ad1be2c89b69c2b068fc378daa952ba7f163c4a11628f55a4df523b3ef836040516116c991906119ff565b60405180910390a36116dd6000838361182a565b5050565b6116e96110b8565b73ffffffffffffffffffffffffffffffffffffffff16611707610bc5565b73ffffffffffffffffffffffffffffffffffffffff161461175d576040517f08c379a000000000000000000000000000000000000000000000000000000000815260040161175490612681565b60405180910390fd5b565b6000600560009054906101000a900473ffffffffffffffffffffffffffffffffffffffff16905081600560006101000a81548173ffffffffffffffffffffffffffffffffffffffff021916908373ffffffffffffffffffffffffffffffffffffffff1602179055508173ffffffffffffffffffffffffffffffffffffffff168173ffffffffffffffffffffffffffffffffffffffff167f8be0079c531659141344cd1fd0a4f28419497f9722a3daafe3b4186f6b6457e060405160405180910390a35050565b505050565b505050565b600081519050919050565b600082825260208201905092915050565b60005b8381101561186957808201518184015260208101905061184e565b60008484015250505050565b6000601f19601f8301169050919050565b60006118918261182f565b61189b818561183a565b93506118ab81856020860161184b565b6118b481611875565b840191505092915050565b600060208201905081810360008301526118d98184611886565b905092915050565b600080fd5b600073ffffffffffffffffffffffffffffffffffffffff82169050919050565b6000611911826118e6565b9050919050565b61192181611906565b811461192c57600080fd5b50565b60008135905061193e81611918565b92915050565b6000819050919050565b61195781611944565b811461196257600080fd5b50565b6000813590506119748161194e565b92915050565b60008060408385031215611991576119906118e1565b5b600061199f8582860161192f565b92505060206119b085828601611965565b9150509250929050565b60008115159050919050565b6119cf816119ba565b82525050565b60006020820190506119ea60008301846119c6565b92915050565b6119f981611944565b82525050565b6000602082019050611a1460008301846119f0565b92915050565b600080600060608486031215611a3357611a326118e1565b5b6000611a418682870161192f565b9350506020611a528682870161192f565b9250506040611a6386828701611965565b9150509250925092565b600060ff82169050919050565b611a8381611a6d565b82525050565b6000602082019050611a9e6000830184611a7a565b92915050565b600060208284031215611aba57611ab96118e1565b5b6000611ac884828501611965565b91505092915050565b600060208284031215611ae757611ae66118e1565b5b6000611af58482850161192f565b91505092915050565b611b0781611906565b82525050565b6000602082019050611b226000830184611afe565b92915050565b60008060408385031215611b3f57611b3e6118e1565b5b6000611b4d8582860161192f565b9250506020611b5e8582860161192f565b9150509250929050565b7f4e487b7100000000000000000000000000000000000000000000000000000000600052602260045260246000fd5b60006002820490506001821680611baf57607f821691505b602082108103611bc257611bc1611b68565b5b50919050565b7f4e6f20746f6b656e73207374616b656400000000000000000000000000000000600082015250565b6000611bfe60108361183a565b9150611c0982611bc8565b602082019050919050565b60006020820190508181036000830152611c2d81611bf1565b9050919050565b7f4e487b7100000000000000000000000000000000000000000000000000000000600052601160045260246000fd5b6000611c6e82611944565b9150611c7983611944565b9250828201905080821115611c9157611c90611c34565b5b92915050565b7f496e76616c696420696e70757400000000000000000000000000000000000000600082015250565b6000611ccd600d8361183a565b9150611cd882611c97565b602082019050919050565b60006020820190508181036000830152611cfc81611cc0565b9050919050565b6000611d0e82611944565b9150611d1983611944565b9250828202611d2781611944565b91508282048414831517611d3e57611d3d611c34565b5b5092915050565b7f496e73756666696369656e74207061796d656e74000000000000000000000000600082015250565b6000611d7b60148361183a565b9150611d8682611d45565b602082019050919050565b60006020820190508181036000830152611daa81611d6e565b9050919050565b6000611dbc82611944565b9150611dc783611944565b9250828203905081811115611ddf57611dde611c34565b5b92915050565b600081905092915050565b50565b6000611e00600083611de5565b9150611e0b82611df0565b600082019050919050565b6000611e2182611df3565b9150819050919050565b7f4661696c656420746f2072657475726e20756e7573656420657468657220746f60008201527f2073656e64657200000000000000000000000000000000000000000000000000602082015250565b6000611e8760278361183a565b9150611e9282611e2b565b604082019050919050565b60006020820190508181036000830152611eb681611e7a565b9050919050565b7f4e6f20457468657220617661696c61626c6520746f2077697468647261770000600082015250565b6000611ef3601e8361183a565b9150611efe82611ebd565b602082019050919050565b60006020820190508181036000830152611f2281611ee6565b9050919050565b7f4661696c656420746f207472616e7366657220457468657220746f206f776e6560008201527f7200000000000000000000000000000000000000000000000000000000000000602082015250565b6000611f8560218361183a565b9150611f9082611f29565b604082019050919050565b60006020820190508181036000830152611fb481611f78565b9050919050565b7f45524332303a2064656372656173656420616c6c6f77616e63652062656c6f7760008201527f207a65726f000000000000000000000000000000000000000000000000000000602082015250565b600061201760258361183a565b915061202282611fbb565b604082019050919050565b600060208201905081810360008301526120468161200a565b9050919050565b7f43616e6e6f74207374616b65203020746f6b656e730000000000000000000000600082015250565b600061208360158361183a565b915061208e8261204d565b602082019050919050565b600060208201905081810360008301526120b281612076565b9050919050565b7f4e6f7420656e6f75676820746f6b656e73000000000000000000000000000000600082015250565b60006120ef60118361183a565b91506120fa826120b9565b602082019050919050565b6000602082019050818103600083015261211e816120e2565b9050919050565b7f546f6b656e7320616c7265616479207374616b65640000000000000000000000600082015250565b600061215b60158361183a565b915061216682612125565b602082019050919050565b6000602082019050818103600083015261218a8161214e565b9050919050565b7f4e487b7100000000000000000000000000000000000000000000000000000000600052601260045260246000fd5b60006121cb82611944565b91506121d683611944565b9250826121e6576121e5612191565b5b828204905092915050565b7f4f776e61626c653a206e6577206f776e657220697320746865207a65726f206160008201527f6464726573730000000000000000000000000000000000000000000000000000602082015250565b600061224d60268361183a565b9150612258826121f1565b604082019050919050565b6000602082019050818103600083015261227c81612240565b9050919050565b7f45524332303a20617070726f76652066726f6d20746865207a65726f2061646460008201527f7265737300000000000000000000000000000000000000000000000000000000602082015250565b60006122df60248361183a565b91506122ea82612283565b604082019050919050565b6000602082019050818103600083015261230e816122d2565b9050919050565b7f45524332303a20617070726f766520746f20746865207a65726f20616464726560008201527f7373000000000000000000000000000000000000000000000000000000000000602082015250565b600061237160228361183a565b915061237c82612315565b604082019050919050565b600060208201905081810360008301526123a081612364565b9050919050565b7f45524332303a20696e73756666696369656e7420616c6c6f77616e6365000000600082015250565b60006123dd601d8361183a565b91506123e8826123a7565b602082019050919050565b6000602082019050818103600083015261240c816123d0565b9050919050565b7f45524332303a207472616e736665722066726f6d20746865207a65726f20616460008201527f6472657373000000000000000000000000000000000000000000000000000000602082015250565b600061246f60258361183a565b915061247a82612413565b604082019050919050565b6000602082019050818103600083015261249e81612462565b9050919050565b7f45524332303a207472616e7366657220746f20746865207a65726f206164647260008201527f6573730000000000000000000000000000000000000000000000000000000000602082015250565b600061250160238361183a565b915061250c826124a5565b604082019050919050565b60006020820190508181036000830152612530816124f4565b9050919050565b7f45524332303a207472616e7366657220616d6f756e742065786365656473206260008201527f616c616e63650000000000000000000000000000000000000000000000000000602082015250565b600061259360268361183a565b915061259e82612537565b604082019050919050565b600060208201905081810360008301526125c281612586565b9050919050565b7f45524332303a206d696e7420746f20746865207a65726f206164647265737300600082015250565b60006125ff601f8361183a565b915061260a826125c9565b602082019050919050565b6000602082019050818103600083015261262e816125f2565b9050919050565b7f4f776e61626c653a2063616c6c6572206973206e6f7420746865206f776e6572600082015250565b600061266b60208361183a565b915061267682612635565b602082019050919050565b6000602082019050818103600083015261269a8161265e565b905091905056fea2646970667358221220bad130a8eac2f3fe72dcd89c6f2f41f54e3ba3006ac68d9204f9e45514d78e5364736f6c63430008110033",
  "linkReferences": {},
  "deployedLinkReferences": {}
}