{
  "_format": "hh-sol-artifact-1",
  "contractName": "StakingContract",
  "sourceName": "contracts/ERC20Stalkingupdate.sol",
  "abi": [
    {
      "inputs": [
        {
          "internalType": "string",
          "name": "name",
          "type": "string"
        },
        {
          "internalType": "string",
          "name": "symbol",
          "type": "string"
        },
        {
          "internalType": "uint256",
          "name": "_duration",
          "type": "uint256"
        }
      ],
      "stateMutability": "nonpayable",
      "type": "constructor"
    },
    {
      "anonymous": false,
      "inputs": [
        {
          "indexed": true,
          "internalType": "address",
          "name": "owner",
          "type": "address"
        },
        {
          "indexed": true,
          "internalType": "address",
          "name": "spender",
          "type": "address"
        },
        {
          "indexed": false,
          "internalType": "uint256",
          "name": "value",
          "type": "uint256"
        }
      ],
      "name": "Approval",
      "type": "event"
    },
    {
      "anonymous": false,
      "inputs": [
        {
          "indexed": true,
          "internalType": "address",
          "name": "previousOwner",
          "type": "address"
        },
        {
          "indexed": true,
          "internalType": "address",
          "name": "newOwner",
          "type": "address"
        }
      ],
      "name": "OwnershipTransferred",
      "type": "event"
    },
    {
      "anonymous": false,
      "inputs": [
        {
          "indexed": true,
          "internalType": "address",
          "name": "from",
          "type": "address"
        },
        {
          "indexed": true,
          "internalType": "address",
          "name": "to",
          "type": "address"
        },
        {
          "indexed": false,
          "internalType": "uint256",
          "name": "value",
          "type": "uint256"
        }
      ],
      "name": "Transfer",
      "type": "event"
    },
    {
      "inputs": [
        {
          "internalType": "address",
          "name": "owner",
          "type": "address"
        },
        {
          "internalType": "address",
          "name": "spender",
          "type": "address"
        }
      ],
      "name": "allowance",
      "outputs": [
        {
          "internalType": "uint256",
          "name": "",
          "type": "uint256"
        }
      ],
      "stateMutability": "view",
      "type": "function"
    },
    {
      "inputs": [
        {
          "internalType": "address",
          "name": "",
          "type": "address"
        }
      ],
      "name": "amountStaked",
      "outputs": [
        {
          "internalType": "uint256",
          "name": "",
          "type": "uint256"
        }
      ],
      "stateMutability": "view",
      "type": "function"
    },
    {
      "inputs": [
        {
          "internalType": "address",
          "name": "spender",
          "type": "address"
        },
        {
          "internalType": "uint256",
          "name": "amount",
          "type": "uint256"
        }
      ],
      "name": "approve",
      "outputs": [
        {
          "internalType": "bool",
          "name": "",
          "type": "bool"
        }
      ],
      "stateMutability": "nonpayable",
      "type": "function"
    },
    {
      "inputs": [
        {
          "internalType": "address",
          "name": "account",
          "type": "address"
        }
      ],
      "name": "balanceOf",
      "outputs": [
        {
          "internalType": "uint256",
          "name": "",
          "type": "uint256"
        }
      ],
      "stateMutability": "view",
      "type": "function"
    },
    {
      "inputs": [
        {
          "internalType": "uint256",
          "name": "numTokens",
          "type": "uint256"
        }
      ],
      "name": "buyTokens",
      "outputs": [],
      "stateMutability": "payable",
      "type": "function"
    },
    {
      "inputs": [
        {
          "internalType": "address",
          "name": "_staker",
          "type": "address"
        }
      ],
      "name": "calculateReward",
      "outputs": [
        {
          "internalType": "uint256",
          "name": "",
          "type": "uint256"
        }
      ],
      "stateMutability": "view",
      "type": "function"
    },
    {
      "inputs": [
        {
          "internalType": "address",
          "name": "_user",
          "type": "address"
        }
      ],
      "name": "checkBalance",
      "outputs": [
        {
          "internalType": "uint256",
          "name": "",
          "type": "uint256"
        }
      ],
      "stateMutability": "view",
      "type": "function"
    },
    {
      "inputs": [],
      "name": "decimals",
      "outputs": [
        {
          "internalType": "uint8",
          "name": "",
          "type": "uint8"
        }
      ],
      "stateMutability": "view",
      "type": "function"
    },
    {
      "inputs": [
        {
          "internalType": "address",
          "name": "spender",
          "type": "address"
        },
        {
          "internalType": "uint256",
          "name": "subtractedValue",
          "type": "uint256"
        }
      ],
      "name": "decreaseAllowance",
      "outputs": [
        {
          "internalType": "bool",
          "name": "",
          "type": "bool"
        }
      ],
      "stateMutability": "nonpayable",
      "type": "function"
    },
    {
      "inputs": [],
      "name": "duration",
      "outputs": [
        {
          "internalType": "uint256",
          "name": "",
          "type": "uint256"
        }
      ],
      "stateMutability": "view",
      "type": "function"
    },
    {
      "inputs": [
        {
          "internalType": "address",
          "name": "spender",
          "type": "address"
        },
        {
          "internalType": "uint256",
          "name": "addedValue",
          "type": "uint256"
        }
      ],
      "name": "increaseAllowance",
      "outputs": [
        {
          "internalType": "bool",
          "name": "",
          "type": "bool"
        }
      ],
      "stateMutability": "nonpayable",
      "type": "function"
    },
    {
      "inputs": [],
      "name": "name",
      "outputs": [
        {
          "internalType": "string",
          "name": "",
          "type": "string"
        }
      ],
      "stateMutability": "view",
      "type": "function"
    },
    {
      "inputs": [],
      "name": "owner",
      "outputs": [
        {
          "internalType": "address",
          "name": "",
          "type": "address"
        }
      ],
      "stateMutability": "view",
      "type": "function"
    },
    {
      "inputs": [],
      "name": "price",
      "outputs": [
        {
          "internalType": "uint256",
          "name": "",
          "type": "uint256"
        }
      ],
      "stateMutability": "view",
      "type": "function"
    },
    {
      "inputs": [],
      "name": "renounceOwnership",
      "outputs": [],
      "stateMutability": "nonpayable",
      "type": "function"
    },
    {
      "inputs": [
        {
          "internalType": "uint256",
          "name": "_amount",
          "type": "uint256"
        }
      ],
      "name": "stake",
      "outputs": [],
      "stateMutability": "nonpayable",
      "type": "function"
    },
    {
      "inputs": [],
      "name": "stakeStartTime",
      "outputs": [
        {
          "internalType": "uint256",
          "name": "",
          "type": "uint256"
        }
      ],
      "stateMutability": "view",
      "type": "function"
    },
    {
      "inputs": [
        {
          "internalType": "address",
          "name": "",
          "type": "address"
        }
      ],
      "name": "staked",
      "outputs": [
        {
          "internalType": "bool",
          "name": "",
          "type": "bool"
        }
      ],
      "stateMutability": "view",
      "type": "function"
    },
    {
      "inputs": [],
      "name": "symbol",
      "outputs": [
        {
          "internalType": "string",
          "name": "",
          "type": "string"
        }
      ],
      "stateMutability": "view",
      "type": "function"
    },
    {
      "inputs": [],
      "name": "totalSupply",
      "outputs": [
        {
          "internalType": "uint256",
          "name": "",
          "type": "uint256"
        }
      ],
      "stateMutability": "view",
      "type": "function"
    },
    {
      "inputs": [
        {
          "internalType": "address",
          "name": "to",
          "type": "address"
        },
        {
          "internalType": "uint256",
          "name": "amount",
          "type": "uint256"
        }
      ],
      "name": "transfer",
      "outputs": [
        {
          "internalType": "bool",
          "name": "",
          "type": "bool"
        }
      ],
      "stateMutability": "nonpayable",
      "type": "function"
    },
    {
      "inputs": [
        {
          "internalType": "address",
          "name": "from",
          "type": "address"
        },
        {
          "internalType": "address",
          "name": "to",
          "type": "address"
        },
        {
          "internalType": "uint256",
          "name": "amount",
          "type": "uint256"
        }
      ],
      "name": "transferFrom",
      "outputs": [
        {
          "internalType": "bool",
          "name": "",
          "type": "bool"
        }
      ],
      "stateMutability": "nonpayable",
      "type": "function"
    },
    {
      "inputs": [
        {
          "internalType": "address",
          "name": "newOwner",
          "type": "address"
        }
      ],
      "name": "transferOwnership",
      "outputs": [],
      "stateMutability": "nonpayable",
      "type": "function"
    },
    {
      "inputs": [],
      "name": "unstake",
      "outputs": [
        {
          "internalType": "uint256",
          "name": "",
          "type": "uint256"
        }
      ],
      "stateMutability": "nonpayable",
      "type": "function"
    },
    {
      "inputs": [
        {
          "internalType": "uint256",
          "name": "withdraw",
          "type": "uint256"
        }
      ],
      "name": "unstake",
      "outputs": [
        {
          "internalType": "uint256",
          "name": "",
          "type": "uint256"
        }
      ],
      "stateMutability": "nonpayable",
      "type": "function"
    },
    {
      "inputs": [],
      "name": "withdrawEther",
      "outputs": [],
      "stateMutability": "nonpayable",
      "type": "function"
    }
  ],
  "bytecode": "0x60806040526001600a553480156200001657600080fd5b5060405162002e7a38038062002e7a83398181016040528101906200003c919062000330565b828281600390816200004f91906200060b565b5080600490816200006191906200060b565b50505062000084620000786200009460201b60201c565b6200009c60201b60201c565b80600981905550505050620006f2565b600033905090565b6000600560009054906101000a900473ffffffffffffffffffffffffffffffffffffffff16905081600560006101000a81548173ffffffffffffffffffffffffffffffffffffffff021916908373ffffffffffffffffffffffffffffffffffffffff1602179055508173ffffffffffffffffffffffffffffffffffffffff168173ffffffffffffffffffffffffffffffffffffffff167f8be0079c531659141344cd1fd0a4f28419497f9722a3daafe3b4186f6b6457e060405160405180910390a35050565b6000604051905090565b600080fd5b600080fd5b600080fd5b600080fd5b6000601f19601f8301169050919050565b7f4e487b7100000000000000000000000000000000000000000000000000000000600052604160045260246000fd5b620001cb8262000180565b810181811067ffffffffffffffff82111715620001ed57620001ec62000191565b5b80604052505050565b60006200020262000162565b9050620002108282620001c0565b919050565b600067ffffffffffffffff82111562000233576200023262000191565b5b6200023e8262000180565b9050602081019050919050565b60005b838110156200026b5780820151818401526020810190506200024e565b60008484015250505050565b60006200028e620002888462000215565b620001f6565b905082815260208101848484011115620002ad57620002ac6200017b565b5b620002ba8482856200024b565b509392505050565b600082601f830112620002da57620002d962000176565b5b8151620002ec84826020860162000277565b91505092915050565b6000819050919050565b6200030a81620002f5565b81146200031657600080fd5b50565b6000815190506200032a81620002ff565b92915050565b6000806000606084860312156200034c576200034b6200016c565b5b600084015167ffffffffffffffff8111156200036d576200036c62000171565b5b6200037b86828701620002c2565b935050602084015167ffffffffffffffff8111156200039f576200039e62000171565b5b620003ad86828701620002c2565b9250506040620003c08682870162000319565b9150509250925092565b600081519050919050565b7f4e487b7100000000000000000000000000000000000000000000000000000000600052602260045260246000fd5b600060028204905060018216806200041d57607f821691505b602082108103620004335762000432620003d5565b5b50919050565b60008190508160005260206000209050919050565b60006020601f8301049050919050565b600082821b905092915050565b6000600883026200049d7fffffffffffffffffffffffffffffffffffffffffffffffffffffffffffffffff826200045e565b620004a986836200045e565b95508019841693508086168417925050509392505050565b6000819050919050565b6000620004ec620004e6620004e084620002f5565b620004c1565b620002f5565b9050919050565b6000819050919050565b6200050883620004cb565b620005206200051782620004f3565b8484546200046b565b825550505050565b600090565b6200053762000528565b62000544818484620004fd565b505050565b5b818110156200056c57620005606000826200052d565b6001810190506200054a565b5050565b601f821115620005bb57620005858162000439565b62000590846200044e565b81016020851015620005a0578190505b620005b8620005af856200044e565b83018262000549565b50505b505050565b600082821c905092915050565b6000620005e060001984600802620005c0565b1980831691505092915050565b6000620005fb8383620005cd565b9150826002028217905092915050565b6200061682620003ca565b67ffffffffffffffff81111562000632576200063162000191565b5b6200063e825462000404565b6200064b82828562000570565b600060209050601f8311600181146200068357600084156200066e578287015190505b6200067a8582620005ed565b865550620006ea565b601f198416620006938662000439565b60005b82811015620006bd5784890151825560018201915060208501945060208101905062000696565b86831015620006dd5784890151620006d9601f891682620005cd565b8355505b6001600288020188555050505b505050505050565b61277880620007026000396000f3fe6080604052600436106101815760003560e01c80637362377b116100d1578063a457c2d71161008a578063d82e396211610064578063d82e3962146105a1578063dd62ed3e146105de578063ef40a6701461061b578063f2fde38b1461065857610181565b8063a457c2d7146104fe578063a694fc3a1461053b578063a9059cbb1461056457610181565b80637362377b146103fe5780637419f190146104155780638da5cb5b1461044057806395d89b411461046b57806398807d8414610496578063a035b1fe146104d357610181565b80632e17de781161013e578063395093511161011857806339509351146103305780635f5152261461036d57806370a08231146103aa578063715018a6146103e757610181565b80632e17de78146102ac578063313ce567146102e95780633610724e1461031457610181565b806306fdde0314610186578063095ea7b3146101b15780630fb5a6b4146101ee57806318160ddd1461021957806323b872dd146102445780632def662014610281575b600080fd5b34801561019257600080fd5b5061019b610681565b6040516101a89190611960565b60405180910390f35b3480156101bd57600080fd5b506101d860048036038101906101d39190611a1b565b610713565b6040516101e59190611a76565b60405180910390f35b3480156101fa57600080fd5b50610203610736565b6040516102109190611aa0565b60405180910390f35b34801561022557600080fd5b5061022e61073c565b60405161023b9190611aa0565b60405180910390f35b34801561025057600080fd5b5061026b60048036038101906102669190611abb565b610746565b6040516102789190611a76565b60405180910390f35b34801561028d57600080fd5b50610296610775565b6040516102a39190611aa0565b60405180910390f35b3480156102b857600080fd5b506102d360048036038101906102ce9190611b0e565b61090e565b6040516102e09190611aa0565b60405180910390f35b3480156102f557600080fd5b506102fe61093e565b60405161030b9190611b57565b60405180910390f35b61032e60048036038101906103299190611b0e565b610947565b005b34801561033c57600080fd5b5061035760048036038101906103529190611a1b565b610ab4565b6040516103649190611a76565b60405180910390f35b34801561037957600080fd5b50610394600480360381019061038f9190611b72565b610aeb565b6040516103a19190611aa0565b60405180910390f35b3480156103b657600080fd5b506103d160048036038101906103cc9190611b72565b610afd565b6040516103de9190611aa0565b60405180910390f35b3480156103f357600080fd5b506103fc610b45565b005b34801561040a57600080fd5b50610413610b59565b005b34801561042157600080fd5b5061042a610c60565b6040516104379190611aa0565b60405180910390f35b34801561044c57600080fd5b50610455610c66565b6040516104629190611bae565b60405180910390f35b34801561047757600080fd5b50610480610c90565b60405161048d9190611960565b60405180910390f35b3480156104a257600080fd5b506104bd60048036038101906104b89190611b72565b610d22565b6040516104ca9190611a76565b60405180910390f35b3480156104df57600080fd5b506104e8610d42565b6040516104f59190611aa0565b60405180910390f35b34801561050a57600080fd5b5061052560048036038101906105209190611a1b565b610d48565b6040516105329190611a76565b60405180910390f35b34801561054757600080fd5b50610562600480360381019061055d9190611b0e565b610dbf565b005b34801561057057600080fd5b5061058b60048036038101906105869190611a1b565b610f80565b6040516105989190611a76565b60405180910390f35b3480156105ad57600080fd5b506105c860048036038101906105c39190611b72565b610fa3565b6040516105d59190611aa0565b60405180910390f35b3480156105ea57600080fd5b5061060560048036038101906106009190611bc9565b611037565b6040516106129190611aa0565b60405180910390f35b34801561062757600080fd5b50610642600480360381019061063d9190611b72565b6110be565b60405161064f9190611aa0565b60405180910390f35b34801561066457600080fd5b5061067f600480360381019061067a9190611b72565b6110d6565b005b60606003805461069090611c38565b80601f01602080910402602001604051908101604052809291908181526020018280546106bc90611c38565b80156107095780601f106106de57610100808354040283529160200191610709565b820191906000526020600020905b8154815290600101906020018083116106ec57829003601f168201915b5050505050905090565b60008061071e611159565b905061072b818585611161565b600191505092915050565b60095481565b6000600254905090565b600080610751611159565b905061075e85828561132a565b6107698585856113b6565b60019150509392505050565b600080600660003373ffffffffffffffffffffffffffffffffffffffff1673ffffffffffffffffffffffffffffffffffffffff16815260200190815260200160002054116107f8576040517f08c379a00000000000000000000000000000000000000000000000000000000081526004016107ef90611cb5565b60405180910390fd5b600061080333610fa3565b9050600081600660003373ffffffffffffffffffffffffffffffffffffffff1673ffffffffffffffffffffffffffffffffffffffff168152602001908152602001600020546108529190611d04565b90506000600660003373ffffffffffffffffffffffffffffffffffffffff1673ffffffffffffffffffffffffffffffffffffffff168152602001908152602001600020819055506000600760003373ffffffffffffffffffffffffffffffffffffffff1673ffffffffffffffffffffffffffffffffffffffff16815260200190815260200160002060006101000a81548160ff0219169083151502179055506108fb308361162c565b6109063033836113b6565b809250505090565b600080610919610775565b9050600083826109299190611d38565b905061093481610dbf565b8192505050919050565b60006012905090565b6000811161098a576040517f08c379a000000000000000000000000000000000000000000000000000000000815260040161098190611db8565b60405180910390fd5b6000600a548261099a9190611dd8565b9050803410156109df576040517f08c379a00000000000000000000000000000000000000000000000000000000081526004016109d690611e66565b60405180910390fd5b6109e9338361162c565b80341115610ab057600081346109ff9190611d38565b905060003373ffffffffffffffffffffffffffffffffffffffff1682604051610a2790611eb7565b60006040518083038185875af1925050503d8060008114610a64576040519150601f19603f3d011682016040523d82523d6000602084013e610a69565b606091505b5050905080610aad576040517f08c379a0000000000000000000000000000000000000000000000000000000008152600401610aa490611f3e565b60405180910390fd5b50505b5050565b600080610abf611159565b9050610ae0818585610ad18589611037565b610adb9190611d04565b611161565b600191505092915050565b6000610af682610afd565b9050919050565b60008060008373ffffffffffffffffffffffffffffffffffffffff1673ffffffffffffffffffffffffffffffffffffffff168152602001908152602001600020549050919050565b610b4d611782565b610b576000611800565b565b610b61611782565b600047905060008111610ba9576040517f08c379a0000000000000000000000000000000000000000000000000000000008152600401610ba090611faa565b60405180910390fd5b6000610bb3610c66565b73ffffffffffffffffffffffffffffffffffffffff1682604051610bd690611eb7565b60006040518083038185875af1925050503d8060008114610c13576040519150601f19603f3d011682016040523d82523d6000602084013e610c18565b606091505b5050905080610c5c576040517f08c379a0000000000000000000000000000000000000000000000000000000008152600401610c539061203c565b60405180910390fd5b5050565b60085481565b6000600560009054906101000a900473ffffffffffffffffffffffffffffffffffffffff16905090565b606060048054610c9f90611c38565b80601f0160208091040260200160405190810160405280929190818152602001828054610ccb90611c38565b8015610d185780601f10610ced57610100808354040283529160200191610d18565b820191906000526020600020905b815481529060010190602001808311610cfb57829003601f168201915b5050505050905090565b60076020528060005260406000206000915054906101000a900460ff1681565b600a5481565b600080610d53611159565b90506000610d618286611037565b905083811015610da6576040517f08c379a0000000000000000000000000000000000000000000000000000000008152600401610d9d906120ce565b60405180910390fd5b610db38286868403611161565b60019250505092915050565b60008111610e02576040517f08c379a0000000000000000000000000000000000000000000000000000000008152600401610df99061213a565b60405180910390fd5b80610e0c33610afd565b1015610e4d576040517f08c379a0000000000000000000000000000000000000000000000000000000008152600401610e44906121a6565b60405180910390fd5b6000600660003373ffffffffffffffffffffffffffffffffffffffff1673ffffffffffffffffffffffffffffffffffffffff1681526020019081526020016000205414610ecf576040517f08c379a0000000000000000000000000000000000000000000000000000000008152600401610ec690612212565b60405180910390fd5b610ed93082610f80565b5080600660003373ffffffffffffffffffffffffffffffffffffffff1673ffffffffffffffffffffffffffffffffffffffff168152602001908152602001600020819055506001600760003373ffffffffffffffffffffffffffffffffffffffff1673ffffffffffffffffffffffffffffffffffffffff16815260200190815260200160002060006101000a81548160ff0219169083151502179055504260088190555050565b600080610f8b611159565b9050610f988185856113b6565b600191505092915050565b600080600660008473ffffffffffffffffffffffffffffffffffffffff1673ffffffffffffffffffffffffffffffffffffffff1681526020019081526020016000205490506000606482610ff79190612261565b90506000600854426110099190611d38565b905060006009548261101b9190612261565b905080836110299190611dd8565b925082945050505050919050565b6000600160008473ffffffffffffffffffffffffffffffffffffffff1673ffffffffffffffffffffffffffffffffffffffff16815260200190815260200160002060008373ffffffffffffffffffffffffffffffffffffffff1673ffffffffffffffffffffffffffffffffffffffff16815260200190815260200160002054905092915050565b60066020528060005260406000206000915090505481565b6110de611782565b600073ffffffffffffffffffffffffffffffffffffffff168173ffffffffffffffffffffffffffffffffffffffff160361114d576040517f08c379a000000000000000000000000000000000000000000000000000000000815260040161114490612304565b60405180910390fd5b61115681611800565b50565b600033905090565b600073ffffffffffffffffffffffffffffffffffffffff168373ffffffffffffffffffffffffffffffffffffffff16036111d0576040517f08c379a00000000000000000000000000000000000000000000000000000000081526004016111c790612396565b60405180910390fd5b600073ffffffffffffffffffffffffffffffffffffffff168273ffffffffffffffffffffffffffffffffffffffff160361123f576040517f08c379a000000000000000000000000000000000000000000000000000000000815260040161123690612428565b60405180910390fd5b80600160008573ffffffffffffffffffffffffffffffffffffffff1673ffffffffffffffffffffffffffffffffffffffff16815260200190815260200160002060008473ffffffffffffffffffffffffffffffffffffffff1673ffffffffffffffffffffffffffffffffffffffff168152602001908152602001600020819055508173ffffffffffffffffffffffffffffffffffffffff168373ffffffffffffffffffffffffffffffffffffffff167f8c5be1e5ebec7d5bd14f71427d1e84f3dd0314c0f7b2291e5b200ac8c7c3b9258360405161131d9190611aa0565b60405180910390a3505050565b60006113368484611037565b90507fffffffffffffffffffffffffffffffffffffffffffffffffffffffffffffffff81146113b057818110156113a2576040517f08c379a000000000000000000000000000000000000000000000000000000000815260040161139990612494565b60405180910390fd5b6113af8484848403611161565b5b50505050565b600073ffffffffffffffffffffffffffffffffffffffff168373ffffffffffffffffffffffffffffffffffffffff1603611425576040517f08c379a000000000000000000000000000000000000000000000000000000000815260040161141c90612526565b60405180910390fd5b600073ffffffffffffffffffffffffffffffffffffffff168273ffffffffffffffffffffffffffffffffffffffff1603611494576040517f08c379a000000000000000000000000000000000000000000000000000000000815260040161148b906125b8565b60405180910390fd5b61149f8383836118c6565b60008060008573ffffffffffffffffffffffffffffffffffffffff1673ffffffffffffffffffffffffffffffffffffffff16815260200190815260200160002054905081811015611525576040517f08c379a000000000000000000000000000000000000000000000000000000000815260040161151c9061264a565b60405180910390fd5b8181036000808673ffffffffffffffffffffffffffffffffffffffff1673ffffffffffffffffffffffffffffffffffffffff16815260200190815260200160002081905550816000808573ffffffffffffffffffffffffffffffffffffffff1673ffffffffffffffffffffffffffffffffffffffff168152602001908152602001600020600082825401925050819055508273ffffffffffffffffffffffffffffffffffffffff168473ffffffffffffffffffffffffffffffffffffffff167fddf252ad1be2c89b69c2b068fc378daa952ba7f163c4a11628f55a4df523b3ef846040516116139190611aa0565b60405180910390a36116268484846118cb565b50505050565b600073ffffffffffffffffffffffffffffffffffffffff168273ffffffffffffffffffffffffffffffffffffffff160361169b576040517f08c379a0000000000000000000000000000000000000000000000000000000008152600401611692906126b6565b60405180910390fd5b6116a7600083836118c6565b80600260008282546116b99190611d04565b92505081905550806000808473ffffffffffffffffffffffffffffffffffffffff1673ffffffffffffffffffffffffffffffffffffffff168152602001908152602001600020600082825401925050819055508173ffffffffffffffffffffffffffffffffffffffff16600073ffffffffffffffffffffffffffffffffffffffff167fddf252ad1be2c89b69c2b068fc378daa952ba7f163c4a11628f55a4df523b3ef8360405161176a9190611aa0565b60405180910390a361177e600083836118cb565b5050565b61178a611159565b73ffffffffffffffffffffffffffffffffffffffff166117a8610c66565b73ffffffffffffffffffffffffffffffffffffffff16146117fe576040517f08c379a00000000000000000000000000000000000000000000000000000000081526004016117f590612722565b60405180910390fd5b565b6000600560009054906101000a900473ffffffffffffffffffffffffffffffffffffffff16905081600560006101000a81548173ffffffffffffffffffffffffffffffffffffffff021916908373ffffffffffffffffffffffffffffffffffffffff1602179055508173ffffffffffffffffffffffffffffffffffffffff168173ffffffffffffffffffffffffffffffffffffffff167f8be0079c531659141344cd1fd0a4f28419497f9722a3daafe3b4186f6b6457e060405160405180910390a35050565b505050565b505050565b600081519050919050565b600082825260208201905092915050565b60005b8381101561190a5780820151818401526020810190506118ef565b60008484015250505050565b6000601f19601f8301169050919050565b6000611932826118d0565b61193c81856118db565b935061194c8185602086016118ec565b61195581611916565b840191505092915050565b6000602082019050818103600083015261197a8184611927565b905092915050565b600080fd5b600073ffffffffffffffffffffffffffffffffffffffff82169050919050565b60006119b282611987565b9050919050565b6119c2816119a7565b81146119cd57600080fd5b50565b6000813590506119df816119b9565b92915050565b6000819050919050565b6119f8816119e5565b8114611a0357600080fd5b50565b600081359050611a15816119ef565b92915050565b60008060408385031215611a3257611a31611982565b5b6000611a40858286016119d0565b9250506020611a5185828601611a06565b9150509250929050565b60008115159050919050565b611a7081611a5b565b82525050565b6000602082019050611a8b6000830184611a67565b92915050565b611a9a816119e5565b82525050565b6000602082019050611ab56000830184611a91565b92915050565b600080600060608486031215611ad457611ad3611982565b5b6000611ae2868287016119d0565b9350506020611af3868287016119d0565b9250506040611b0486828701611a06565b9150509250925092565b600060208284031215611b2457611b23611982565b5b6000611b3284828501611a06565b91505092915050565b600060ff82169050919050565b611b5181611b3b565b82525050565b6000602082019050611b6c6000830184611b48565b92915050565b600060208284031215611b8857611b87611982565b5b6000611b96848285016119d0565b91505092915050565b611ba8816119a7565b82525050565b6000602082019050611bc36000830184611b9f565b92915050565b60008060408385031215611be057611bdf611982565b5b6000611bee858286016119d0565b9250506020611bff858286016119d0565b9150509250929050565b7f4e487b7100000000000000000000000000000000000000000000000000000000600052602260045260246000fd5b60006002820490506001821680611c5057607f821691505b602082108103611c6357611c62611c09565b5b50919050565b7f4e6f20746f6b656e73207374616b656400000000000000000000000000000000600082015250565b6000611c9f6010836118db565b9150611caa82611c69565b602082019050919050565b60006020820190508181036000830152611cce81611c92565b9050919050565b7f4e487b7100000000000000000000000000000000000000000000000000000000600052601160045260246000fd5b6000611d0f826119e5565b9150611d1a836119e5565b9250828201905080821115611d3257611d31611cd5565b5b92915050565b6000611d43826119e5565b9150611d4e836119e5565b9250828203905081811115611d6657611d65611cd5565b5b92915050565b7f496e76616c696420696e70757400000000000000000000000000000000000000600082015250565b6000611da2600d836118db565b9150611dad82611d6c565b602082019050919050565b60006020820190508181036000830152611dd181611d95565b9050919050565b6000611de3826119e5565b9150611dee836119e5565b9250828202611dfc816119e5565b91508282048414831517611e1357611e12611cd5565b5b5092915050565b7f496e73756666696369656e74207061796d656e74000000000000000000000000600082015250565b6000611e506014836118db565b9150611e5b82611e1a565b602082019050919050565b60006020820190508181036000830152611e7f81611e43565b9050919050565b600081905092915050565b50565b6000611ea1600083611e86565b9150611eac82611e91565b600082019050919050565b6000611ec282611e94565b9150819050919050565b7f4661696c656420746f2072657475726e20756e7573656420657468657220746f60008201527f2073656e64657200000000000000000000000000000000000000000000000000602082015250565b6000611f286027836118db565b9150611f3382611ecc565b604082019050919050565b60006020820190508181036000830152611f5781611f1b565b9050919050565b7f4e6f20457468657220617661696c61626c6520746f2077697468647261770000600082015250565b6000611f94601e836118db565b9150611f9f82611f5e565b602082019050919050565b60006020820190508181036000830152611fc381611f87565b9050919050565b7f4661696c656420746f207472616e7366657220457468657220746f206f776e6560008201527f7200000000000000000000000000000000000000000000000000000000000000602082015250565b60006120266021836118db565b915061203182611fca565b604082019050919050565b6000602082019050818103600083015261205581612019565b9050919050565b7f45524332303a2064656372656173656420616c6c6f77616e63652062656c6f7760008201527f207a65726f000000000000000000000000000000000000000000000000000000602082015250565b60006120b86025836118db565b91506120c38261205c565b604082019050919050565b600060208201905081810360008301526120e7816120ab565b9050919050565b7f43616e6e6f74207374616b65203020746f6b656e730000000000000000000000600082015250565b60006121246015836118db565b915061212f826120ee565b602082019050919050565b6000602082019050818103600083015261215381612117565b9050919050565b7f4e6f7420656e6f75676820746f6b656e73000000000000000000000000000000600082015250565b60006121906011836118db565b915061219b8261215a565b602082019050919050565b600060208201905081810360008301526121bf81612183565b9050919050565b7f546f6b656e7320616c7265616479207374616b65640000000000000000000000600082015250565b60006121fc6015836118db565b9150612207826121c6565b602082019050919050565b6000602082019050818103600083015261222b816121ef565b9050919050565b7f4e487b7100000000000000000000000000000000000000000000000000000000600052601260045260246000fd5b600061226c826119e5565b9150612277836119e5565b92508261228757612286612232565b5b828204905092915050565b7f4f776e61626c653a206e6577206f776e657220697320746865207a65726f206160008201527f6464726573730000000000000000000000000000000000000000000000000000602082015250565b60006122ee6026836118db565b91506122f982612292565b604082019050919050565b6000602082019050818103600083015261231d816122e1565b9050919050565b7f45524332303a20617070726f76652066726f6d20746865207a65726f2061646460008201527f7265737300000000000000000000000000000000000000000000000000000000602082015250565b60006123806024836118db565b915061238b82612324565b604082019050919050565b600060208201905081810360008301526123af81612373565b9050919050565b7f45524332303a20617070726f766520746f20746865207a65726f20616464726560008201527f7373000000000000000000000000000000000000000000000000000000000000602082015250565b60006124126022836118db565b915061241d826123b6565b604082019050919050565b6000602082019050818103600083015261244181612405565b9050919050565b7f45524332303a20696e73756666696369656e7420616c6c6f77616e6365000000600082015250565b600061247e601d836118db565b915061248982612448565b602082019050919050565b600060208201905081810360008301526124ad81612471565b9050919050565b7f45524332303a207472616e736665722066726f6d20746865207a65726f20616460008201527f6472657373000000000000000000000000000000000000000000000000000000602082015250565b60006125106025836118db565b915061251b826124b4565b604082019050919050565b6000602082019050818103600083015261253f81612503565b9050919050565b7f45524332303a207472616e7366657220746f20746865207a65726f206164647260008201527f6573730000000000000000000000000000000000000000000000000000000000602082015250565b60006125a26023836118db565b91506125ad82612546565b604082019050919050565b600060208201905081810360008301526125d181612595565b9050919050565b7f45524332303a207472616e7366657220616d6f756e742065786365656473206260008201527f616c616e63650000000000000000000000000000000000000000000000000000602082015250565b60006126346026836118db565b915061263f826125d8565b604082019050919050565b6000602082019050818103600083015261266381612627565b9050919050565b7f45524332303a206d696e7420746f20746865207a65726f206164647265737300600082015250565b60006126a0601f836118db565b91506126ab8261266a565b602082019050919050565b600060208201905081810360008301526126cf81612693565b9050919050565b7f4f776e61626c653a2063616c6c6572206973206e6f7420746865206f776e6572600082015250565b600061270c6020836118db565b9150612717826126d6565b602082019050919050565b6000602082019050818103600083015261273b816126ff565b905091905056fea26469706673582212205fbf0a6b09f5cb2ee720cdf85e6b125b43ceb58471193bb30fdbb20bc225329964736f6c63430008110033",
  "linkReferences": {},
  "deployedLinkReferences": {}
}